{
	"contracts/Ballot.sol": {
		"Ballot": {
			"abi": [
				{
					"inputs": [],
					"stateMutability": "nonpayable",
					"type": "constructor"
				},
				{
					"inputs": [
						{
							"internalType": "uint256",
							"name": "proposalIndex",
							"type": "uint256"
						},
						{
							"internalType": "uint256",
							"name": "correctValue",
							"type": "uint256"
						}
					],
					"name": "closeProposal",
					"outputs": [],
					"stateMutability": "nonpayable",
					"type": "function"
				},
				{
					"inputs": [
						{
							"internalType": "string",
							"name": "title",
							"type": "string"
						},
						{
							"internalType": "string",
							"name": "description",
							"type": "string"
						}
					],
					"name": "createProposal",
					"outputs": [],
					"stateMutability": "nonpayable",
					"type": "function"
				},
				{
					"inputs": [
						{
							"internalType": "uint256",
							"name": "",
							"type": "uint256"
						}
					],
					"name": "proposals",
					"outputs": [
						{
							"internalType": "string",
							"name": "title",
							"type": "string"
						},
						{
							"internalType": "string",
							"name": "description",
							"type": "string"
						},
						{
							"internalType": "bool",
							"name": "isOpen",
							"type": "bool"
						}
					],
					"stateMutability": "view",
					"type": "function"
				},
				{
					"inputs": [
						{
							"internalType": "address",
							"name": "targetUser",
							"type": "address"
						}
					],
					"name": "setAdmin",
					"outputs": [],
					"stateMutability": "nonpayable",
					"type": "function"
				},
				{
					"inputs": [
						{
							"internalType": "uint256",
							"name": "proposalIndex",
							"type": "uint256"
						},
						{
							"internalType": "uint256",
							"name": "voteValue",
							"type": "uint256"
						}
					],
					"name": "voteForProposal",
					"outputs": [],
					"stateMutability": "nonpayable",
					"type": "function"
				},
				{
					"inputs": [
						{
							"internalType": "address",
							"name": "",
							"type": "address"
						}
					],
					"name": "voters",
					"outputs": [
						{
							"internalType": "uint256",
							"name": "score",
							"type": "uint256"
						},
						{
							"internalType": "bool",
							"name": "isAdmin",
							"type": "bool"
						}
					],
					"stateMutability": "view",
					"type": "function"
				}
			],
			"devdoc": {
				"kind": "dev",
				"methods": {},
				"version": 1
			},
			"evm": {
				"assembly": "    /* \"contracts/Ballot.sol\":70:2191  contract Ballot {... */\n  mstore(0x40, 0x80)\n    /* \"contracts/Ballot.sol\":477:541  constructor() {... */\n  callvalue\n  dup1\n  iszero\n  tag_1\n  jumpi\n  0x00\n  dup1\n  revert\ntag_1:\n  pop\n    /* \"contracts/Ballot.sol\":530:534  true */\n  0x01\n    /* \"contracts/Ballot.sol\":501:507  voters */\n  0x00\n    /* \"contracts/Ballot.sol\":501:519  voters[msg.sender] */\n  dup1\n    /* \"contracts/Ballot.sol\":508:518  msg.sender */\n  caller\n    /* \"contracts/Ballot.sol\":501:519  voters[msg.sender] */\n  0xffffffffffffffffffffffffffffffffffffffff\n  and\n  0xffffffffffffffffffffffffffffffffffffffff\n  and\n  dup2\n  mstore\n  0x20\n  add\n  swap1\n  dup2\n  mstore\n  0x20\n  add\n  0x00\n  keccak256\n    /* \"contracts/Ballot.sol\":501:527  voters[msg.sender].isAdmin */\n  0x01\n  add\n  0x00\n    /* \"contracts/Ballot.sol\":501:534  voters[msg.sender].isAdmin = true */\n  0x0100\n  exp\n  dup2\n  sload\n  dup2\n  0xff\n  mul\n  not\n  and\n  swap1\n  dup4\n  iszero\n  iszero\n  mul\n  or\n  swap1\n  sstore\n  pop\n    /* \"contracts/Ballot.sol\":70:2191  contract Ballot {... */\n  dataSize(sub_0)\n  dup1\n  dataOffset(sub_0)\n  0x00\n  codecopy\n  0x00\n  return\nstop\n\nsub_0: assembly {\n        /* \"contracts/Ballot.sol\":70:2191  contract Ballot {... */\n      mstore(0x40, 0x80)\n      callvalue\n      dup1\n      iszero\n      tag_1\n      jumpi\n      0x00\n      dup1\n      revert\n    tag_1:\n      pop\n      jumpi(tag_2, lt(calldatasize, 0x04))\n      shr(0xe0, calldataload(0x00))\n      dup1\n      0x013cf08b\n      eq\n      tag_3\n      jumpi\n      dup1\n      0x65e481e2\n      eq\n      tag_4\n      jumpi\n      dup1\n      0x704b6c02\n      eq\n      tag_5\n      jumpi\n      dup1\n      0xa3ec138d\n      eq\n      tag_6\n      jumpi\n      dup1\n      0xe7613ea8\n      eq\n      tag_7\n      jumpi\n      dup1\n      0xf8f1212a\n      eq\n      tag_8\n      jumpi\n    tag_2:\n      0x00\n      dup1\n      revert\n        /* \"contracts/Ballot.sol\":443:470  Proposal[] public proposals */\n    tag_3:\n      tag_9\n      0x04\n      dup1\n      calldatasize\n      sub\n      dup2\n      add\n      swap1\n      tag_10\n      swap2\n      swap1\n      tag_11\n      jump\t// in\n    tag_10:\n      tag_12\n      jump\t// in\n    tag_9:\n      mload(0x40)\n      tag_13\n      swap4\n      swap3\n      swap2\n      swap1\n      tag_14\n      jump\t// in\n    tag_13:\n      mload(0x40)\n      dup1\n      swap2\n      sub\n      swap1\n      return\n        /* \"contracts/Ballot.sol\":721:1048  function createProposal(string memory title, string memory description) public {... */\n    tag_4:\n      tag_15\n      0x04\n      dup1\n      calldatasize\n      sub\n      dup2\n      add\n      swap1\n      tag_16\n      swap2\n      swap1\n      tag_17\n      jump\t// in\n    tag_16:\n      tag_18\n      jump\t// in\n    tag_15:\n      stop\n        /* \"contracts/Ballot.sol\":547:715  function setAdmin(address targetUser) public {... */\n    tag_5:\n      tag_19\n      0x04\n      dup1\n      calldatasize\n      sub\n      dup2\n      add\n      swap1\n      tag_20\n      swap2\n      swap1\n      tag_21\n      jump\t// in\n    tag_20:\n      tag_22\n      jump\t// in\n    tag_19:\n      stop\n        /* \"contracts/Ballot.sol\":398:437  mapping(address => Voter) public voters */\n    tag_6:\n      tag_23\n      0x04\n      dup1\n      calldatasize\n      sub\n      dup2\n      add\n      swap1\n      tag_24\n      swap2\n      swap1\n      tag_21\n      jump\t// in\n    tag_24:\n      tag_25\n      jump\t// in\n    tag_23:\n      mload(0x40)\n      tag_26\n      swap3\n      swap2\n      swap1\n      tag_27\n      jump\t// in\n    tag_26:\n      mload(0x40)\n      dup1\n      swap2\n      sub\n      swap1\n      return\n        /* \"contracts/Ballot.sol\":1549:2189  function closeProposal(uint proposalIndex, uint correctValue) public {... */\n    tag_7:\n      tag_28\n      0x04\n      dup1\n      calldatasize\n      sub\n      dup2\n      add\n      swap1\n      tag_29\n      swap2\n      swap1\n      tag_30\n      jump\t// in\n    tag_29:\n      tag_31\n      jump\t// in\n    tag_28:\n      stop\n        /* \"contracts/Ballot.sol\":1054:1543  function voteForProposal(uint proposalIndex, uint voteValue) public {... */\n    tag_8:\n      tag_32\n      0x04\n      dup1\n      calldatasize\n      sub\n      dup2\n      add\n      swap1\n      tag_33\n      swap2\n      swap1\n      tag_30\n      jump\t// in\n    tag_33:\n      tag_34\n      jump\t// in\n    tag_32:\n      stop\n        /* \"contracts/Ballot.sol\":443:470  Proposal[] public proposals */\n    tag_12:\n      0x01\n      dup2\n      dup2\n      sload\n      dup2\n      lt\n      tag_35\n      jumpi\n      0x00\n      dup1\n      revert\n    tag_35:\n      swap1\n      0x00\n      mstore\n      keccak256(0x00, 0x20)\n      swap1\n      0x05\n      mul\n      add\n      0x00\n      swap2\n      pop\n      swap1\n      pop\n      dup1\n      0x00\n      add\n      dup1\n      sload\n      tag_37\n      swap1\n      tag_38\n      jump\t// in\n    tag_37:\n      dup1\n      0x1f\n      add\n      0x20\n      dup1\n      swap2\n      div\n      mul\n      0x20\n      add\n      mload(0x40)\n      swap1\n      dup2\n      add\n      0x40\n      mstore\n      dup1\n      swap3\n      swap2\n      swap1\n      dup2\n      dup2\n      mstore\n      0x20\n      add\n      dup3\n      dup1\n      sload\n      tag_39\n      swap1\n      tag_38\n      jump\t// in\n    tag_39:\n      dup1\n      iszero\n      tag_40\n      jumpi\n      dup1\n      0x1f\n      lt\n      tag_41\n      jumpi\n      0x0100\n      dup1\n      dup4\n      sload\n      div\n      mul\n      dup4\n      mstore\n      swap2\n      0x20\n      add\n      swap2\n      jump(tag_40)\n    tag_41:\n      dup3\n      add\n      swap2\n      swap1\n      0x00\n      mstore\n      keccak256(0x00, 0x20)\n      swap1\n    tag_42:\n      dup2\n      sload\n      dup2\n      mstore\n      swap1\n      0x01\n      add\n      swap1\n      0x20\n      add\n      dup1\n      dup4\n      gt\n      tag_42\n      jumpi\n      dup3\n      swap1\n      sub\n      0x1f\n      and\n      dup3\n      add\n      swap2\n    tag_40:\n      pop\n      pop\n      pop\n      pop\n      pop\n      swap1\n      dup1\n      0x01\n      add\n      dup1\n      sload\n      tag_43\n      swap1\n      tag_38\n      jump\t// in\n    tag_43:\n      dup1\n      0x1f\n      add\n      0x20\n      dup1\n      swap2\n      div\n      mul\n      0x20\n      add\n      mload(0x40)\n      swap1\n      dup2\n      add\n      0x40\n      mstore\n      dup1\n      swap3\n      swap2\n      swap1\n      dup2\n      dup2\n      mstore\n      0x20\n      add\n      dup3\n      dup1\n      sload\n      tag_44\n      swap1\n      tag_38\n      jump\t// in\n    tag_44:\n      dup1\n      iszero\n      tag_45\n      jumpi\n      dup1\n      0x1f\n      lt\n      tag_46\n      jumpi\n      0x0100\n      dup1\n      dup4\n      sload\n      div\n      mul\n      dup4\n      mstore\n      swap2\n      0x20\n      add\n      swap2\n      jump(tag_45)\n    tag_46:\n      dup3\n      add\n      swap2\n      swap1\n      0x00\n      mstore\n      keccak256(0x00, 0x20)\n      swap1\n    tag_47:\n      dup2\n      sload\n      dup2\n      mstore\n      swap1\n      0x01\n      add\n      swap1\n      0x20\n      add\n      dup1\n      dup4\n      gt\n      tag_47\n      jumpi\n      dup3\n      swap1\n      sub\n      0x1f\n      and\n      dup3\n      add\n      swap2\n    tag_45:\n      pop\n      pop\n      pop\n      pop\n      pop\n      swap1\n      dup1\n      0x02\n      add\n      0x00\n      swap1\n      sload\n      swap1\n      0x0100\n      exp\n      swap1\n      div\n      0xff\n      and\n      swap1\n      pop\n      dup4\n      jump\t// out\n        /* \"contracts/Ballot.sol\":721:1048  function createProposal(string memory title, string memory description) public {... */\n    tag_18:\n        /* \"contracts/Ballot.sol\":818:824  voters */\n      0x00\n        /* \"contracts/Ballot.sol\":818:836  voters[msg.sender] */\n      dup1\n        /* \"contracts/Ballot.sol\":825:835  msg.sender */\n      caller\n        /* \"contracts/Ballot.sol\":818:836  voters[msg.sender] */\n      0xffffffffffffffffffffffffffffffffffffffff\n      and\n      0xffffffffffffffffffffffffffffffffffffffff\n      and\n      dup2\n      mstore\n      0x20\n      add\n      swap1\n      dup2\n      mstore\n      0x20\n      add\n      0x00\n      keccak256\n        /* \"contracts/Ballot.sol\":818:844  voters[msg.sender].isAdmin */\n      0x01\n      add\n      0x00\n      swap1\n      sload\n      swap1\n      0x0100\n      exp\n      swap1\n      div\n      0xff\n      and\n        /* \"contracts/Ballot.sol\":810:879  require(voters[msg.sender].isAdmin, \"Only admin can create proposal\") */\n      tag_49\n      jumpi\n      mload(0x40)\n      0x08c379a000000000000000000000000000000000000000000000000000000000\n      dup2\n      mstore\n      0x04\n      add\n      tag_50\n      swap1\n      tag_51\n      jump\t// in\n    tag_50:\n      mload(0x40)\n      dup1\n      swap2\n      sub\n      swap1\n      revert\n    tag_49:\n        /* \"contracts/Ballot.sol\":889:914  Proposal storage proposal */\n      0x00\n        /* \"contracts/Ballot.sol\":917:926  proposals */\n      0x01\n        /* \"contracts/Ballot.sol\":917:933  proposals.push() */\n      dup1\n      dup2\n      0x01\n      dup2\n      sload\n      add\n      dup1\n      dup3\n      sstore\n      dup1\n      swap2\n      pop\n      pop\n      sub\n      swap1\n      0x00\n      mstore\n      keccak256(0x00, 0x20)\n      swap1\n      0x05\n      mul\n      add\n        /* \"contracts/Ballot.sol\":889:933  Proposal storage proposal = proposals.push() */\n      swap1\n      pop\n        /* \"contracts/Ballot.sol\":960:965  title */\n      dup3\n        /* \"contracts/Ballot.sol\":943:951  proposal */\n      dup2\n        /* \"contracts/Ballot.sol\":943:957  proposal.title */\n      0x00\n      add\n        /* \"contracts/Ballot.sol\":943:965  proposal.title = title */\n      swap1\n      dup2\n      tag_53\n      swap2\n      swap1\n      tag_54\n      jump\t// in\n    tag_53:\n      pop\n        /* \"contracts/Ballot.sol\":998:1009  description */\n      dup2\n        /* \"contracts/Ballot.sol\":975:983  proposal */\n      dup2\n        /* \"contracts/Ballot.sol\":975:995  proposal.description */\n      0x01\n      add\n        /* \"contracts/Ballot.sol\":975:1009  proposal.description = description */\n      swap1\n      dup2\n      tag_55\n      swap2\n      swap1\n      tag_54\n      jump\t// in\n    tag_55:\n      pop\n        /* \"contracts/Ballot.sol\":1037:1041  true */\n      0x01\n        /* \"contracts/Ballot.sol\":1019:1027  proposal */\n      dup2\n        /* \"contracts/Ballot.sol\":1019:1034  proposal.isOpen */\n      0x02\n      add\n      0x00\n        /* \"contracts/Ballot.sol\":1019:1041  proposal.isOpen = true */\n      0x0100\n      exp\n      dup2\n      sload\n      dup2\n      0xff\n      mul\n      not\n      and\n      swap1\n      dup4\n      iszero\n      iszero\n      mul\n      or\n      swap1\n      sstore\n      pop\n        /* \"contracts/Ballot.sol\":800:1048  {... */\n      pop\n        /* \"contracts/Ballot.sol\":721:1048  function createProposal(string memory title, string memory description) public {... */\n      pop\n      pop\n      jump\t// out\n        /* \"contracts/Ballot.sol\":547:715  function setAdmin(address targetUser) public {... */\n    tag_22:\n        /* \"contracts/Ballot.sol\":610:616  voters */\n      0x00\n        /* \"contracts/Ballot.sol\":610:628  voters[msg.sender] */\n      dup1\n        /* \"contracts/Ballot.sol\":617:627  msg.sender */\n      caller\n        /* \"contracts/Ballot.sol\":610:628  voters[msg.sender] */\n      0xffffffffffffffffffffffffffffffffffffffff\n      and\n      0xffffffffffffffffffffffffffffffffffffffff\n      and\n      dup2\n      mstore\n      0x20\n      add\n      swap1\n      dup2\n      mstore\n      0x20\n      add\n      0x00\n      keccak256\n        /* \"contracts/Ballot.sol\":610:636  voters[msg.sender].isAdmin */\n      0x01\n      add\n      0x00\n      swap1\n      sload\n      swap1\n      0x0100\n      exp\n      swap1\n      div\n      0xff\n      and\n        /* \"contracts/Ballot.sol\":602:665  require(voters[msg.sender].isAdmin, \"Only admin can set admin\") */\n      tag_57\n      jumpi\n      mload(0x40)\n      0x08c379a000000000000000000000000000000000000000000000000000000000\n      dup2\n      mstore\n      0x04\n      add\n      tag_58\n      swap1\n      tag_59\n      jump\t// in\n    tag_58:\n      mload(0x40)\n      dup1\n      swap2\n      sub\n      swap1\n      revert\n    tag_57:\n        /* \"contracts/Ballot.sol\":704:708  true */\n      0x01\n        /* \"contracts/Ballot.sol\":675:681  voters */\n      0x00\n        /* \"contracts/Ballot.sol\":675:693  voters[targetUser] */\n      dup1\n        /* \"contracts/Ballot.sol\":682:692  targetUser */\n      dup4\n        /* \"contracts/Ballot.sol\":675:693  voters[targetUser] */\n      0xffffffffffffffffffffffffffffffffffffffff\n      and\n      0xffffffffffffffffffffffffffffffffffffffff\n      and\n      dup2\n      mstore\n      0x20\n      add\n      swap1\n      dup2\n      mstore\n      0x20\n      add\n      0x00\n      keccak256\n        /* \"contracts/Ballot.sol\":675:701  voters[targetUser].isAdmin */\n      0x01\n      add\n      0x00\n        /* \"contracts/Ballot.sol\":675:708  voters[targetUser].isAdmin = true */\n      0x0100\n      exp\n      dup2\n      sload\n      dup2\n      0xff\n      mul\n      not\n      and\n      swap1\n      dup4\n      iszero\n      iszero\n      mul\n      or\n      swap1\n      sstore\n      pop\n        /* \"contracts/Ballot.sol\":547:715  function setAdmin(address targetUser) public {... */\n      pop\n      jump\t// out\n        /* \"contracts/Ballot.sol\":398:437  mapping(address => Voter) public voters */\n    tag_25:\n      mstore(0x20, 0x00)\n      dup1\n      0x00\n      mstore\n      keccak256(0x00, 0x40)\n      0x00\n      swap2\n      pop\n      swap1\n      pop\n      dup1\n      0x00\n      add\n      sload\n      swap1\n      dup1\n      0x01\n      add\n      0x00\n      swap1\n      sload\n      swap1\n      0x0100\n      exp\n      swap1\n      div\n      0xff\n      and\n      swap1\n      pop\n      dup3\n      jump\t// out\n        /* \"contracts/Ballot.sol\":1549:2189  function closeProposal(uint proposalIndex, uint correctValue) public {... */\n    tag_31:\n        /* \"contracts/Ballot.sol\":1636:1642  voters */\n      0x00\n        /* \"contracts/Ballot.sol\":1636:1654  voters[msg.sender] */\n      dup1\n        /* \"contracts/Ballot.sol\":1643:1653  msg.sender */\n      caller\n        /* \"contracts/Ballot.sol\":1636:1654  voters[msg.sender] */\n      0xffffffffffffffffffffffffffffffffffffffff\n      and\n      0xffffffffffffffffffffffffffffffffffffffff\n      and\n      dup2\n      mstore\n      0x20\n      add\n      swap1\n      dup2\n      mstore\n      0x20\n      add\n      0x00\n      keccak256\n        /* \"contracts/Ballot.sol\":1636:1662  voters[msg.sender].isAdmin */\n      0x01\n      add\n      0x00\n      swap1\n      sload\n      swap1\n      0x0100\n      exp\n      swap1\n      div\n      0xff\n      and\n        /* \"contracts/Ballot.sol\":1628:1696  require(voters[msg.sender].isAdmin, \"Only admin can close proposal\") */\n      tag_61\n      jumpi\n      mload(0x40)\n      0x08c379a000000000000000000000000000000000000000000000000000000000\n      dup2\n      mstore\n      0x04\n      add\n      tag_62\n      swap1\n      tag_63\n      jump\t// in\n    tag_62:\n      mload(0x40)\n      dup1\n      swap2\n      sub\n      swap1\n      revert\n    tag_61:\n        /* \"contracts/Ballot.sol\":1731:1732  0 */\n      0x00\n        /* \"contracts/Ballot.sol\":1714:1727  proposalIndex */\n      dup3\n        /* \"contracts/Ballot.sol\":1714:1732  proposalIndex >= 0 */\n      lt\n      iszero\n        /* \"contracts/Ballot.sol\":1714:1768  proposalIndex >= 0 && proposalIndex < proposals.length */\n      dup1\n      iszero\n      tag_64\n      jumpi\n      pop\n        /* \"contracts/Ballot.sol\":1752:1761  proposals */\n      0x01\n        /* \"contracts/Ballot.sol\":1752:1768  proposals.length */\n      dup1\n      sload\n      swap1\n      pop\n        /* \"contracts/Ballot.sol\":1736:1749  proposalIndex */\n      dup3\n        /* \"contracts/Ballot.sol\":1736:1768  proposalIndex < proposals.length */\n      lt\n        /* \"contracts/Ballot.sol\":1714:1768  proposalIndex >= 0 && proposalIndex < proposals.length */\n    tag_64:\n        /* \"contracts/Ballot.sol\":1706:1795  require(proposalIndex >= 0 && proposalIndex < proposals.length, \"Invalid proposal index\") */\n      tag_65\n      jumpi\n      mload(0x40)\n      0x08c379a000000000000000000000000000000000000000000000000000000000\n      dup2\n      mstore\n      0x04\n      add\n      tag_66\n      swap1\n      tag_67\n      jump\t// in\n    tag_66:\n      mload(0x40)\n      dup1\n      swap2\n      sub\n      swap1\n      revert\n    tag_65:\n        /* \"contracts/Ballot.sol\":1805:1830  Proposal storage proposal */\n      0x00\n        /* \"contracts/Ballot.sol\":1833:1842  proposals */\n      0x01\n        /* \"contracts/Ballot.sol\":1843:1856  proposalIndex */\n      dup4\n        /* \"contracts/Ballot.sol\":1833:1857  proposals[proposalIndex] */\n      dup2\n      sload\n      dup2\n      lt\n      tag_68\n      jumpi\n      tag_69\n      tag_70\n      jump\t// in\n    tag_69:\n    tag_68:\n      swap1\n      0x00\n      mstore\n      keccak256(0x00, 0x20)\n      swap1\n      0x05\n      mul\n      add\n        /* \"contracts/Ballot.sol\":1805:1857  Proposal storage proposal = proposals[proposalIndex] */\n      swap1\n      pop\n        /* \"contracts/Ballot.sol\":1875:1883  proposal */\n      dup1\n        /* \"contracts/Ballot.sol\":1875:1890  proposal.isOpen */\n      0x02\n      add\n      0x00\n      swap1\n      sload\n      swap1\n      0x0100\n      exp\n      swap1\n      div\n      0xff\n      and\n        /* \"contracts/Ballot.sol\":1867:1921  require(proposal.isOpen, \"Proposal is already closed\") */\n      tag_72\n      jumpi\n      mload(0x40)\n      0x08c379a000000000000000000000000000000000000000000000000000000000\n      dup2\n      mstore\n      0x04\n      add\n      tag_73\n      swap1\n      tag_74\n      jump\t// in\n    tag_73:\n      mload(0x40)\n      dup1\n      swap2\n      sub\n      swap1\n      revert\n    tag_72:\n        /* \"contracts/Ballot.sol\":1949:1954  false */\n      0x00\n        /* \"contracts/Ballot.sol\":1931:1939  proposal */\n      dup2\n        /* \"contracts/Ballot.sol\":1931:1946  proposal.isOpen */\n      0x02\n      add\n      0x00\n        /* \"contracts/Ballot.sol\":1931:1954  proposal.isOpen = false */\n      0x0100\n      exp\n      dup2\n      sload\n      dup2\n      0xff\n      mul\n      not\n      and\n      swap1\n      dup4\n      iszero\n      iszero\n      mul\n      or\n      swap1\n      sstore\n      pop\n        /* \"contracts/Ballot.sol\":1969:1975  uint i */\n      0x00\n        /* \"contracts/Ballot.sol\":1964:2183  for (uint i = 0; i < proposal.votes.length; i++) {... */\n    tag_75:\n        /* \"contracts/Ballot.sol\":1985:1993  proposal */\n      dup2\n        /* \"contracts/Ballot.sol\":1985:1999  proposal.votes */\n      0x03\n      add\n        /* \"contracts/Ballot.sol\":1985:2006  proposal.votes.length */\n      dup1\n      sload\n      swap1\n      pop\n        /* \"contracts/Ballot.sol\":1981:1982  i */\n      dup2\n        /* \"contracts/Ballot.sol\":1981:2006  i < proposal.votes.length */\n      lt\n        /* \"contracts/Ballot.sol\":1964:2183  for (uint i = 0; i < proposal.votes.length; i++) {... */\n      iszero\n      tag_76\n      jumpi\n        /* \"contracts/Ballot.sol\":2027:2044  Vote storage vote */\n      0x00\n        /* \"contracts/Ballot.sol\":2047:2055  proposal */\n      dup3\n        /* \"contracts/Ballot.sol\":2047:2061  proposal.votes */\n      0x03\n      add\n        /* \"contracts/Ballot.sol\":2062:2063  i */\n      dup3\n        /* \"contracts/Ballot.sol\":2047:2064  proposal.votes[i] */\n      dup2\n      sload\n      dup2\n      lt\n      tag_78\n      jumpi\n      tag_79\n      tag_70\n      jump\t// in\n    tag_79:\n    tag_78:\n      swap1\n      0x00\n      mstore\n      keccak256(0x00, 0x20)\n      swap1\n      0x02\n      mul\n      add\n        /* \"contracts/Ballot.sol\":2027:2064  Vote storage vote = proposal.votes[i] */\n      swap1\n      pop\n        /* \"contracts/Ballot.sol\":2100:2112  correctValue */\n      dup4\n        /* \"contracts/Ballot.sol\":2082:2086  vote */\n      dup2\n        /* \"contracts/Ballot.sol\":2082:2096  vote.voteValue */\n      0x01\n      add\n      sload\n        /* \"contracts/Ballot.sol\":2082:2112  vote.voteValue == correctValue */\n      sub\n        /* \"contracts/Ballot.sol\":2078:2173  if (vote.voteValue == correctValue) {... */\n      tag_81\n      jumpi\n        /* \"contracts/Ballot.sol\":2132:2138  voters */\n      0x00\n        /* \"contracts/Ballot.sol\":2132:2150  voters[vote.voter] */\n      dup1\n        /* \"contracts/Ballot.sol\":2139:2143  vote */\n      dup3\n        /* \"contracts/Ballot.sol\":2139:2149  vote.voter */\n      0x00\n      add\n      0x00\n      swap1\n      sload\n      swap1\n      0x0100\n      exp\n      swap1\n      div\n      0xffffffffffffffffffffffffffffffffffffffff\n      and\n        /* \"contracts/Ballot.sol\":2132:2150  voters[vote.voter] */\n      0xffffffffffffffffffffffffffffffffffffffff\n      and\n      0xffffffffffffffffffffffffffffffffffffffff\n      and\n      dup2\n      mstore\n      0x20\n      add\n      swap1\n      dup2\n      mstore\n      0x20\n      add\n      0x00\n      keccak256\n        /* \"contracts/Ballot.sol\":2132:2156  voters[vote.voter].score */\n      0x00\n      add\n      0x00\n        /* \"contracts/Ballot.sol\":2132:2158  voters[vote.voter].score++ */\n      dup2\n      sload\n      dup1\n      swap3\n      swap2\n      swap1\n      tag_82\n      swap1\n      tag_83\n      jump\t// in\n    tag_82:\n      swap2\n      swap1\n      pop\n      sstore\n      pop\n        /* \"contracts/Ballot.sol\":2078:2173  if (vote.voteValue == correctValue) {... */\n    tag_81:\n        /* \"contracts/Ballot.sol\":2013:2183  {... */\n      pop\n        /* \"contracts/Ballot.sol\":2008:2011  i++ */\n      dup1\n      dup1\n      tag_84\n      swap1\n      tag_83\n      jump\t// in\n    tag_84:\n      swap2\n      pop\n      pop\n        /* \"contracts/Ballot.sol\":1964:2183  for (uint i = 0; i < proposal.votes.length; i++) {... */\n      jump(tag_75)\n    tag_76:\n      pop\n        /* \"contracts/Ballot.sol\":1618:2189  {... */\n      pop\n        /* \"contracts/Ballot.sol\":1549:2189  function closeProposal(uint proposalIndex, uint correctValue) public {... */\n      pop\n      pop\n      jump\t// out\n        /* \"contracts/Ballot.sol\":1054:1543  function voteForProposal(uint proposalIndex, uint voteValue) public {... */\n    tag_34:\n        /* \"contracts/Ballot.sol\":1157:1158  0 */\n      0x00\n        /* \"contracts/Ballot.sol\":1140:1153  proposalIndex */\n      dup3\n        /* \"contracts/Ballot.sol\":1140:1158  proposalIndex >= 0 */\n      lt\n      iszero\n        /* \"contracts/Ballot.sol\":1140:1194  proposalIndex >= 0 && proposalIndex < proposals.length */\n      dup1\n      iszero\n      tag_86\n      jumpi\n      pop\n        /* \"contracts/Ballot.sol\":1178:1187  proposals */\n      0x01\n        /* \"contracts/Ballot.sol\":1178:1194  proposals.length */\n      dup1\n      sload\n      swap1\n      pop\n        /* \"contracts/Ballot.sol\":1162:1175  proposalIndex */\n      dup3\n        /* \"contracts/Ballot.sol\":1162:1194  proposalIndex < proposals.length */\n      lt\n        /* \"contracts/Ballot.sol\":1140:1194  proposalIndex >= 0 && proposalIndex < proposals.length */\n    tag_86:\n        /* \"contracts/Ballot.sol\":1132:1221  require(proposalIndex >= 0 && proposalIndex < proposals.length, \"Invalid proposal index\") */\n      tag_87\n      jumpi\n      mload(0x40)\n      0x08c379a000000000000000000000000000000000000000000000000000000000\n      dup2\n      mstore\n      0x04\n      add\n      tag_88\n      swap1\n      tag_67\n      jump\t// in\n    tag_88:\n      mload(0x40)\n      dup1\n      swap2\n      sub\n      swap1\n      revert\n    tag_87:\n        /* \"contracts/Ballot.sol\":1231:1256  Proposal storage proposal */\n      0x00\n        /* \"contracts/Ballot.sol\":1259:1268  proposals */\n      0x01\n        /* \"contracts/Ballot.sol\":1269:1282  proposalIndex */\n      dup4\n        /* \"contracts/Ballot.sol\":1259:1283  proposals[proposalIndex] */\n      dup2\n      sload\n      dup2\n      lt\n      tag_89\n      jumpi\n      tag_90\n      tag_70\n      jump\t// in\n    tag_90:\n    tag_89:\n      swap1\n      0x00\n      mstore\n      keccak256(0x00, 0x20)\n      swap1\n      0x05\n      mul\n      add\n        /* \"contracts/Ballot.sol\":1231:1283  Proposal storage proposal = proposals[proposalIndex] */\n      swap1\n      pop\n        /* \"contracts/Ballot.sol\":1301:1309  proposal */\n      dup1\n        /* \"contracts/Ballot.sol\":1301:1316  proposal.isOpen */\n      0x02\n      add\n      0x00\n      swap1\n      sload\n      swap1\n      0x0100\n      exp\n      swap1\n      div\n      0xff\n      and\n        /* \"contracts/Ballot.sol\":1293:1339  require(proposal.isOpen, \"Proposal is closed\") */\n      tag_92\n      jumpi\n      mload(0x40)\n      0x08c379a000000000000000000000000000000000000000000000000000000000\n      dup2\n      mstore\n      0x04\n      add\n      tag_93\n      swap1\n      tag_94\n      jump\t// in\n    tag_93:\n      mload(0x40)\n      dup1\n      swap2\n      sub\n      swap1\n      revert\n    tag_92:\n        /* \"contracts/Ballot.sol\":1358:1366  proposal */\n      dup1\n        /* \"contracts/Ballot.sol\":1358:1375  proposal.hasVoted */\n      0x04\n      add\n        /* \"contracts/Ballot.sol\":1358:1387  proposal.hasVoted[msg.sender] */\n      0x00\n        /* \"contracts/Ballot.sol\":1376:1386  msg.sender */\n      caller\n        /* \"contracts/Ballot.sol\":1358:1387  proposal.hasVoted[msg.sender] */\n      0xffffffffffffffffffffffffffffffffffffffff\n      and\n      0xffffffffffffffffffffffffffffffffffffffff\n      and\n      dup2\n      mstore\n      0x20\n      add\n      swap1\n      dup2\n      mstore\n      0x20\n      add\n      0x00\n      keccak256\n      0x00\n      swap1\n      sload\n      swap1\n      0x0100\n      exp\n      swap1\n      div\n      0xff\n      and\n        /* \"contracts/Ballot.sol\":1357:1387  !proposal.hasVoted[msg.sender] */\n      iszero\n        /* \"contracts/Ballot.sol\":1349:1432  require(!proposal.hasVoted[msg.sender], \"You have already voted for this proposal\") */\n      tag_95\n      jumpi\n      mload(0x40)\n      0x08c379a000000000000000000000000000000000000000000000000000000000\n      dup2\n      mstore\n      0x04\n      add\n      tag_96\n      swap1\n      tag_97\n      jump\t// in\n    tag_96:\n      mload(0x40)\n      dup1\n      swap2\n      sub\n      swap1\n      revert\n    tag_95:\n        /* \"contracts/Ballot.sol\":1442:1450  proposal */\n      dup1\n        /* \"contracts/Ballot.sol\":1442:1456  proposal.votes */\n      0x03\n      add\n        /* \"contracts/Ballot.sol\":1462:1489  Vote(msg.sender, voteValue) */\n      mload(0x40)\n      dup1\n      0x40\n      add\n      0x40\n      mstore\n      dup1\n        /* \"contracts/Ballot.sol\":1467:1477  msg.sender */\n      caller\n        /* \"contracts/Ballot.sol\":1462:1489  Vote(msg.sender, voteValue) */\n      0xffffffffffffffffffffffffffffffffffffffff\n      and\n      dup2\n      mstore\n      0x20\n      add\n        /* \"contracts/Ballot.sol\":1479:1488  voteValue */\n      dup5\n        /* \"contracts/Ballot.sol\":1462:1489  Vote(msg.sender, voteValue) */\n      dup2\n      mstore\n      pop\n        /* \"contracts/Ballot.sol\":1442:1490  proposal.votes.push(Vote(msg.sender, voteValue)) */\n      swap1\n      dup1\n      0x01\n      dup2\n      sload\n      add\n      dup1\n      dup3\n      sstore\n      dup1\n      swap2\n      pop\n      pop\n      0x01\n      swap1\n      sub\n      swap1\n      0x00\n      mstore\n      keccak256(0x00, 0x20)\n      swap1\n      0x02\n      mul\n      add\n      0x00\n      swap1\n      swap2\n      swap1\n      swap2\n      swap1\n      swap2\n      pop\n      0x00\n      dup3\n      add\n      mload\n      dup2\n      0x00\n      add\n      exp(0x0100, 0x00)\n      dup2\n      sload\n      dup2\n      0xffffffffffffffffffffffffffffffffffffffff\n      mul\n      not\n      and\n      swap1\n      dup4\n      0xffffffffffffffffffffffffffffffffffffffff\n      and\n      mul\n      or\n      swap1\n      sstore\n      pop\n      0x20\n      dup3\n      add\n      mload\n      dup2\n      0x01\n      add\n      sstore\n      pop\n      pop\n        /* \"contracts/Ballot.sol\":1532:1536  true */\n      0x01\n        /* \"contracts/Ballot.sol\":1500:1508  proposal */\n      dup2\n        /* \"contracts/Ballot.sol\":1500:1517  proposal.hasVoted */\n      0x04\n      add\n        /* \"contracts/Ballot.sol\":1500:1529  proposal.hasVoted[msg.sender] */\n      0x00\n        /* \"contracts/Ballot.sol\":1518:1528  msg.sender */\n      caller\n        /* \"contracts/Ballot.sol\":1500:1529  proposal.hasVoted[msg.sender] */\n      0xffffffffffffffffffffffffffffffffffffffff\n      and\n      0xffffffffffffffffffffffffffffffffffffffff\n      and\n      dup2\n      mstore\n      0x20\n      add\n      swap1\n      dup2\n      mstore\n      0x20\n      add\n      0x00\n      keccak256\n      0x00\n        /* \"contracts/Ballot.sol\":1500:1536  proposal.hasVoted[msg.sender] = true */\n      0x0100\n      exp\n      dup2\n      sload\n      dup2\n      0xff\n      mul\n      not\n      and\n      swap1\n      dup4\n      iszero\n      iszero\n      mul\n      or\n      swap1\n      sstore\n      pop\n        /* \"contracts/Ballot.sol\":1122:1543  {... */\n      pop\n        /* \"contracts/Ballot.sol\":1054:1543  function voteForProposal(uint proposalIndex, uint voteValue) public {... */\n      pop\n      pop\n      jump\t// out\n        /* \"#utility.yul\":7:82   */\n    tag_99:\n        /* \"#utility.yul\":40:46   */\n      0x00\n        /* \"#utility.yul\":73:75   */\n      0x40\n        /* \"#utility.yul\":67:76   */\n      mload\n        /* \"#utility.yul\":57:76   */\n      swap1\n      pop\n        /* \"#utility.yul\":7:82   */\n      swap1\n      jump\t// out\n        /* \"#utility.yul\":88:205   */\n    tag_100:\n        /* \"#utility.yul\":197:198   */\n      0x00\n        /* \"#utility.yul\":194:195   */\n      dup1\n        /* \"#utility.yul\":187:199   */\n      revert\n        /* \"#utility.yul\":211:328   */\n    tag_101:\n        /* \"#utility.yul\":320:321   */\n      0x00\n        /* \"#utility.yul\":317:318   */\n      dup1\n        /* \"#utility.yul\":310:322   */\n      revert\n        /* \"#utility.yul\":334:411   */\n    tag_102:\n        /* \"#utility.yul\":371:378   */\n      0x00\n        /* \"#utility.yul\":400:405   */\n      dup2\n        /* \"#utility.yul\":389:405   */\n      swap1\n      pop\n        /* \"#utility.yul\":334:411   */\n      swap2\n      swap1\n      pop\n      jump\t// out\n        /* \"#utility.yul\":417:539   */\n    tag_103:\n        /* \"#utility.yul\":490:514   */\n      tag_163\n        /* \"#utility.yul\":508:513   */\n      dup2\n        /* \"#utility.yul\":490:514   */\n      tag_102\n      jump\t// in\n    tag_163:\n        /* \"#utility.yul\":483:488   */\n      dup2\n        /* \"#utility.yul\":480:515   */\n      eq\n        /* \"#utility.yul\":470:533   */\n      tag_164\n      jumpi\n        /* \"#utility.yul\":529:530   */\n      0x00\n        /* \"#utility.yul\":526:527   */\n      dup1\n        /* \"#utility.yul\":519:531   */\n      revert\n        /* \"#utility.yul\":470:533   */\n    tag_164:\n        /* \"#utility.yul\":417:539   */\n      pop\n      jump\t// out\n        /* \"#utility.yul\":545:684   */\n    tag_104:\n        /* \"#utility.yul\":591:596   */\n      0x00\n        /* \"#utility.yul\":629:635   */\n      dup2\n        /* \"#utility.yul\":616:636   */\n      calldataload\n        /* \"#utility.yul\":607:636   */\n      swap1\n      pop\n        /* \"#utility.yul\":645:678   */\n      tag_166\n        /* \"#utility.yul\":672:677   */\n      dup2\n        /* \"#utility.yul\":645:678   */\n      tag_103\n      jump\t// in\n    tag_166:\n        /* \"#utility.yul\":545:684   */\n      swap3\n      swap2\n      pop\n      pop\n      jump\t// out\n        /* \"#utility.yul\":690:1019   */\n    tag_11:\n        /* \"#utility.yul\":749:755   */\n      0x00\n        /* \"#utility.yul\":798:800   */\n      0x20\n        /* \"#utility.yul\":786:795   */\n      dup3\n        /* \"#utility.yul\":777:784   */\n      dup5\n        /* \"#utility.yul\":773:796   */\n      sub\n        /* \"#utility.yul\":769:801   */\n      slt\n        /* \"#utility.yul\":766:885   */\n      iszero\n      tag_168\n      jumpi\n        /* \"#utility.yul\":804:883   */\n      tag_169\n      tag_100\n      jump\t// in\n    tag_169:\n        /* \"#utility.yul\":766:885   */\n    tag_168:\n        /* \"#utility.yul\":924:925   */\n      0x00\n        /* \"#utility.yul\":949:1002   */\n      tag_170\n        /* \"#utility.yul\":994:1001   */\n      dup5\n        /* \"#utility.yul\":985:991   */\n      dup3\n        /* \"#utility.yul\":974:983   */\n      dup6\n        /* \"#utility.yul\":970:992   */\n      add\n        /* \"#utility.yul\":949:1002   */\n      tag_104\n      jump\t// in\n    tag_170:\n        /* \"#utility.yul\":939:1002   */\n      swap2\n      pop\n        /* \"#utility.yul\":895:1012   */\n      pop\n        /* \"#utility.yul\":690:1019   */\n      swap3\n      swap2\n      pop\n      pop\n      jump\t// out\n        /* \"#utility.yul\":1025:1124   */\n    tag_105:\n        /* \"#utility.yul\":1077:1083   */\n      0x00\n        /* \"#utility.yul\":1111:1116   */\n      dup2\n        /* \"#utility.yul\":1105:1117   */\n      mload\n        /* \"#utility.yul\":1095:1117   */\n      swap1\n      pop\n        /* \"#utility.yul\":1025:1124   */\n      swap2\n      swap1\n      pop\n      jump\t// out\n        /* \"#utility.yul\":1130:1299   */\n    tag_106:\n        /* \"#utility.yul\":1214:1225   */\n      0x00\n        /* \"#utility.yul\":1248:1254   */\n      dup3\n        /* \"#utility.yul\":1243:1246   */\n      dup3\n        /* \"#utility.yul\":1236:1255   */\n      mstore\n        /* \"#utility.yul\":1288:1292   */\n      0x20\n        /* \"#utility.yul\":1283:1286   */\n      dup3\n        /* \"#utility.yul\":1279:1293   */\n      add\n        /* \"#utility.yul\":1264:1293   */\n      swap1\n      pop\n        /* \"#utility.yul\":1130:1299   */\n      swap3\n      swap2\n      pop\n      pop\n      jump\t// out\n        /* \"#utility.yul\":1305:1551   */\n    tag_107:\n        /* \"#utility.yul\":1386:1387   */\n      0x00\n        /* \"#utility.yul\":1396:1509   */\n    tag_174:\n        /* \"#utility.yul\":1410:1416   */\n      dup4\n        /* \"#utility.yul\":1407:1408   */\n      dup2\n        /* \"#utility.yul\":1404:1417   */\n      lt\n        /* \"#utility.yul\":1396:1509   */\n      iszero\n      tag_176\n      jumpi\n        /* \"#utility.yul\":1495:1496   */\n      dup1\n        /* \"#utility.yul\":1490:1493   */\n      dup3\n        /* \"#utility.yul\":1486:1497   */\n      add\n        /* \"#utility.yul\":1480:1498   */\n      mload\n        /* \"#utility.yul\":1476:1477   */\n      dup2\n        /* \"#utility.yul\":1471:1474   */\n      dup5\n        /* \"#utility.yul\":1467:1478   */\n      add\n        /* \"#utility.yul\":1460:1499   */\n      mstore\n        /* \"#utility.yul\":1432:1434   */\n      0x20\n        /* \"#utility.yul\":1429:1430   */\n      dup2\n        /* \"#utility.yul\":1425:1435   */\n      add\n        /* \"#utility.yul\":1420:1435   */\n      swap1\n      pop\n        /* \"#utility.yul\":1396:1509   */\n      jump(tag_174)\n    tag_176:\n        /* \"#utility.yul\":1543:1544   */\n      0x00\n        /* \"#utility.yul\":1534:1540   */\n      dup5\n        /* \"#utility.yul\":1529:1532   */\n      dup5\n        /* \"#utility.yul\":1525:1541   */\n      add\n        /* \"#utility.yul\":1518:1545   */\n      mstore\n        /* \"#utility.yul\":1367:1551   */\n      pop\n        /* \"#utility.yul\":1305:1551   */\n      pop\n      pop\n      pop\n      jump\t// out\n        /* \"#utility.yul\":1557:1659   */\n    tag_108:\n        /* \"#utility.yul\":1598:1604   */\n      0x00\n        /* \"#utility.yul\":1649:1651   */\n      0x1f\n        /* \"#utility.yul\":1645:1652   */\n      not\n        /* \"#utility.yul\":1640:1642   */\n      0x1f\n        /* \"#utility.yul\":1633:1638   */\n      dup4\n        /* \"#utility.yul\":1629:1643   */\n      add\n        /* \"#utility.yul\":1625:1653   */\n      and\n        /* \"#utility.yul\":1615:1653   */\n      swap1\n      pop\n        /* \"#utility.yul\":1557:1659   */\n      swap2\n      swap1\n      pop\n      jump\t// out\n        /* \"#utility.yul\":1665:2042   */\n    tag_109:\n        /* \"#utility.yul\":1753:1756   */\n      0x00\n        /* \"#utility.yul\":1781:1820   */\n      tag_179\n        /* \"#utility.yul\":1814:1819   */\n      dup3\n        /* \"#utility.yul\":1781:1820   */\n      tag_105\n      jump\t// in\n    tag_179:\n        /* \"#utility.yul\":1836:1907   */\n      tag_180\n        /* \"#utility.yul\":1900:1906   */\n      dup2\n        /* \"#utility.yul\":1895:1898   */\n      dup6\n        /* \"#utility.yul\":1836:1907   */\n      tag_106\n      jump\t// in\n    tag_180:\n        /* \"#utility.yul\":1829:1907   */\n      swap4\n      pop\n        /* \"#utility.yul\":1916:1981   */\n      tag_181\n        /* \"#utility.yul\":1974:1980   */\n      dup2\n        /* \"#utility.yul\":1969:1972   */\n      dup6\n        /* \"#utility.yul\":1962:1966   */\n      0x20\n        /* \"#utility.yul\":1955:1960   */\n      dup7\n        /* \"#utility.yul\":1951:1967   */\n      add\n        /* \"#utility.yul\":1916:1981   */\n      tag_107\n      jump\t// in\n    tag_181:\n        /* \"#utility.yul\":2006:2035   */\n      tag_182\n        /* \"#utility.yul\":2028:2034   */\n      dup2\n        /* \"#utility.yul\":2006:2035   */\n      tag_108\n      jump\t// in\n    tag_182:\n        /* \"#utility.yul\":2001:2004   */\n      dup5\n        /* \"#utility.yul\":1997:2036   */\n      add\n        /* \"#utility.yul\":1990:2036   */\n      swap2\n      pop\n        /* \"#utility.yul\":1757:2042   */\n      pop\n        /* \"#utility.yul\":1665:2042   */\n      swap3\n      swap2\n      pop\n      pop\n      jump\t// out\n        /* \"#utility.yul\":2048:2138   */\n    tag_110:\n        /* \"#utility.yul\":2082:2089   */\n      0x00\n        /* \"#utility.yul\":2125:2130   */\n      dup2\n        /* \"#utility.yul\":2118:2131   */\n      iszero\n        /* \"#utility.yul\":2111:2132   */\n      iszero\n        /* \"#utility.yul\":2100:2132   */\n      swap1\n      pop\n        /* \"#utility.yul\":2048:2138   */\n      swap2\n      swap1\n      pop\n      jump\t// out\n        /* \"#utility.yul\":2144:2253   */\n    tag_111:\n        /* \"#utility.yul\":2225:2246   */\n      tag_185\n        /* \"#utility.yul\":2240:2245   */\n      dup2\n        /* \"#utility.yul\":2225:2246   */\n      tag_110\n      jump\t// in\n    tag_185:\n        /* \"#utility.yul\":2220:2223   */\n      dup3\n        /* \"#utility.yul\":2213:2247   */\n      mstore\n        /* \"#utility.yul\":2144:2253   */\n      pop\n      pop\n      jump\t// out\n        /* \"#utility.yul\":2259:2871   */\n    tag_14:\n        /* \"#utility.yul\":2442:2446   */\n      0x00\n        /* \"#utility.yul\":2480:2482   */\n      0x60\n        /* \"#utility.yul\":2469:2478   */\n      dup3\n        /* \"#utility.yul\":2465:2483   */\n      add\n        /* \"#utility.yul\":2457:2483   */\n      swap1\n      pop\n        /* \"#utility.yul\":2529:2538   */\n      dup2\n        /* \"#utility.yul\":2523:2527   */\n      dup2\n        /* \"#utility.yul\":2519:2539   */\n      sub\n        /* \"#utility.yul\":2515:2516   */\n      0x00\n        /* \"#utility.yul\":2504:2513   */\n      dup4\n        /* \"#utility.yul\":2500:2517   */\n      add\n        /* \"#utility.yul\":2493:2540   */\n      mstore\n        /* \"#utility.yul\":2557:2635   */\n      tag_187\n        /* \"#utility.yul\":2630:2634   */\n      dup2\n        /* \"#utility.yul\":2621:2627   */\n      dup7\n        /* \"#utility.yul\":2557:2635   */\n      tag_109\n      jump\t// in\n    tag_187:\n        /* \"#utility.yul\":2549:2635   */\n      swap1\n      pop\n        /* \"#utility.yul\":2682:2691   */\n      dup2\n        /* \"#utility.yul\":2676:2680   */\n      dup2\n        /* \"#utility.yul\":2672:2692   */\n      sub\n        /* \"#utility.yul\":2667:2669   */\n      0x20\n        /* \"#utility.yul\":2656:2665   */\n      dup4\n        /* \"#utility.yul\":2652:2670   */\n      add\n        /* \"#utility.yul\":2645:2693   */\n      mstore\n        /* \"#utility.yul\":2710:2788   */\n      tag_188\n        /* \"#utility.yul\":2783:2787   */\n      dup2\n        /* \"#utility.yul\":2774:2780   */\n      dup6\n        /* \"#utility.yul\":2710:2788   */\n      tag_109\n      jump\t// in\n    tag_188:\n        /* \"#utility.yul\":2702:2788   */\n      swap1\n      pop\n        /* \"#utility.yul\":2798:2864   */\n      tag_189\n        /* \"#utility.yul\":2860:2862   */\n      0x40\n        /* \"#utility.yul\":2849:2858   */\n      dup4\n        /* \"#utility.yul\":2845:2863   */\n      add\n        /* \"#utility.yul\":2836:2842   */\n      dup5\n        /* \"#utility.yul\":2798:2864   */\n      tag_111\n      jump\t// in\n    tag_189:\n        /* \"#utility.yul\":2259:2871   */\n      swap5\n      swap4\n      pop\n      pop\n      pop\n      pop\n      jump\t// out\n        /* \"#utility.yul\":2877:2994   */\n    tag_112:\n        /* \"#utility.yul\":2986:2987   */\n      0x00\n        /* \"#utility.yul\":2983:2984   */\n      dup1\n        /* \"#utility.yul\":2976:2988   */\n      revert\n        /* \"#utility.yul\":3000:3117   */\n    tag_113:\n        /* \"#utility.yul\":3109:3110   */\n      0x00\n        /* \"#utility.yul\":3106:3107   */\n      dup1\n        /* \"#utility.yul\":3099:3111   */\n      revert\n        /* \"#utility.yul\":3123:3303   */\n    tag_114:\n        /* \"#utility.yul\":3171:3248   */\n      0x4e487b7100000000000000000000000000000000000000000000000000000000\n        /* \"#utility.yul\":3168:3169   */\n      0x00\n        /* \"#utility.yul\":3161:3249   */\n      mstore\n        /* \"#utility.yul\":3268:3272   */\n      0x41\n        /* \"#utility.yul\":3265:3266   */\n      0x04\n        /* \"#utility.yul\":3258:3273   */\n      mstore\n        /* \"#utility.yul\":3292:3296   */\n      0x24\n        /* \"#utility.yul\":3289:3290   */\n      0x00\n        /* \"#utility.yul\":3282:3297   */\n      revert\n        /* \"#utility.yul\":3309:3590   */\n    tag_115:\n        /* \"#utility.yul\":3392:3419   */\n      tag_194\n        /* \"#utility.yul\":3414:3418   */\n      dup3\n        /* \"#utility.yul\":3392:3419   */\n      tag_108\n      jump\t// in\n    tag_194:\n        /* \"#utility.yul\":3384:3390   */\n      dup2\n        /* \"#utility.yul\":3380:3420   */\n      add\n        /* \"#utility.yul\":3522:3528   */\n      dup2\n        /* \"#utility.yul\":3510:3520   */\n      dup2\n        /* \"#utility.yul\":3507:3529   */\n      lt\n        /* \"#utility.yul\":3486:3504   */\n      0xffffffffffffffff\n        /* \"#utility.yul\":3474:3484   */\n      dup3\n        /* \"#utility.yul\":3471:3505   */\n      gt\n        /* \"#utility.yul\":3468:3530   */\n      or\n        /* \"#utility.yul\":3465:3553   */\n      iszero\n      tag_195\n      jumpi\n        /* \"#utility.yul\":3533:3551   */\n      tag_196\n      tag_114\n      jump\t// in\n    tag_196:\n        /* \"#utility.yul\":3465:3553   */\n    tag_195:\n        /* \"#utility.yul\":3573:3583   */\n      dup1\n        /* \"#utility.yul\":3569:3571   */\n      0x40\n        /* \"#utility.yul\":3562:3584   */\n      mstore\n        /* \"#utility.yul\":3352:3590   */\n      pop\n        /* \"#utility.yul\":3309:3590   */\n      pop\n      pop\n      jump\t// out\n        /* \"#utility.yul\":3596:3725   */\n    tag_116:\n        /* \"#utility.yul\":3630:3636   */\n      0x00\n        /* \"#utility.yul\":3657:3677   */\n      tag_198\n      tag_99\n      jump\t// in\n    tag_198:\n        /* \"#utility.yul\":3647:3677   */\n      swap1\n      pop\n        /* \"#utility.yul\":3686:3719   */\n      tag_199\n        /* \"#utility.yul\":3714:3718   */\n      dup3\n        /* \"#utility.yul\":3706:3712   */\n      dup3\n        /* \"#utility.yul\":3686:3719   */\n      tag_115\n      jump\t// in\n    tag_199:\n        /* \"#utility.yul\":3596:3725   */\n      swap2\n      swap1\n      pop\n      jump\t// out\n        /* \"#utility.yul\":3731:4039   */\n    tag_117:\n        /* \"#utility.yul\":3793:3797   */\n      0x00\n        /* \"#utility.yul\":3883:3901   */\n      0xffffffffffffffff\n        /* \"#utility.yul\":3875:3881   */\n      dup3\n        /* \"#utility.yul\":3872:3902   */\n      gt\n        /* \"#utility.yul\":3869:3925   */\n      iszero\n      tag_201\n      jumpi\n        /* \"#utility.yul\":3905:3923   */\n      tag_202\n      tag_114\n      jump\t// in\n    tag_202:\n        /* \"#utility.yul\":3869:3925   */\n    tag_201:\n        /* \"#utility.yul\":3943:3972   */\n      tag_203\n        /* \"#utility.yul\":3965:3971   */\n      dup3\n        /* \"#utility.yul\":3943:3972   */\n      tag_108\n      jump\t// in\n    tag_203:\n        /* \"#utility.yul\":3935:3972   */\n      swap1\n      pop\n        /* \"#utility.yul\":4027:4031   */\n      0x20\n        /* \"#utility.yul\":4021:4025   */\n      dup2\n        /* \"#utility.yul\":4017:4032   */\n      add\n        /* \"#utility.yul\":4009:4032   */\n      swap1\n      pop\n        /* \"#utility.yul\":3731:4039   */\n      swap2\n      swap1\n      pop\n      jump\t// out\n        /* \"#utility.yul\":4045:4191   */\n    tag_118:\n        /* \"#utility.yul\":4142:4148   */\n      dup3\n        /* \"#utility.yul\":4137:4140   */\n      dup2\n        /* \"#utility.yul\":4132:4135   */\n      dup4\n        /* \"#utility.yul\":4119:4149   */\n      calldatacopy\n        /* \"#utility.yul\":4183:4184   */\n      0x00\n        /* \"#utility.yul\":4174:4180   */\n      dup4\n        /* \"#utility.yul\":4169:4172   */\n      dup4\n        /* \"#utility.yul\":4165:4181   */\n      add\n        /* \"#utility.yul\":4158:4185   */\n      mstore\n        /* \"#utility.yul\":4045:4191   */\n      pop\n      pop\n      pop\n      jump\t// out\n        /* \"#utility.yul\":4197:4622   */\n    tag_119:\n        /* \"#utility.yul\":4275:4280   */\n      0x00\n        /* \"#utility.yul\":4300:4366   */\n      tag_206\n        /* \"#utility.yul\":4316:4365   */\n      tag_207\n        /* \"#utility.yul\":4358:4364   */\n      dup5\n        /* \"#utility.yul\":4316:4365   */\n      tag_117\n      jump\t// in\n    tag_207:\n        /* \"#utility.yul\":4300:4366   */\n      tag_116\n      jump\t// in\n    tag_206:\n        /* \"#utility.yul\":4291:4366   */\n      swap1\n      pop\n        /* \"#utility.yul\":4389:4395   */\n      dup3\n        /* \"#utility.yul\":4382:4387   */\n      dup2\n        /* \"#utility.yul\":4375:4396   */\n      mstore\n        /* \"#utility.yul\":4427:4431   */\n      0x20\n        /* \"#utility.yul\":4420:4425   */\n      dup2\n        /* \"#utility.yul\":4416:4432   */\n      add\n        /* \"#utility.yul\":4465:4468   */\n      dup5\n        /* \"#utility.yul\":4456:4462   */\n      dup5\n        /* \"#utility.yul\":4451:4454   */\n      dup5\n        /* \"#utility.yul\":4447:4463   */\n      add\n        /* \"#utility.yul\":4444:4469   */\n      gt\n        /* \"#utility.yul\":4441:4553   */\n      iszero\n      tag_208\n      jumpi\n        /* \"#utility.yul\":4472:4551   */\n      tag_209\n      tag_113\n      jump\t// in\n    tag_209:\n        /* \"#utility.yul\":4441:4553   */\n    tag_208:\n        /* \"#utility.yul\":4562:4616   */\n      tag_210\n        /* \"#utility.yul\":4609:4615   */\n      dup5\n        /* \"#utility.yul\":4604:4607   */\n      dup3\n        /* \"#utility.yul\":4599:4602   */\n      dup6\n        /* \"#utility.yul\":4562:4616   */\n      tag_118\n      jump\t// in\n    tag_210:\n        /* \"#utility.yul\":4281:4622   */\n      pop\n        /* \"#utility.yul\":4197:4622   */\n      swap4\n      swap3\n      pop\n      pop\n      pop\n      jump\t// out\n        /* \"#utility.yul\":4642:4982   */\n    tag_120:\n        /* \"#utility.yul\":4698:4703   */\n      0x00\n        /* \"#utility.yul\":4747:4750   */\n      dup3\n        /* \"#utility.yul\":4740:4744   */\n      0x1f\n        /* \"#utility.yul\":4732:4738   */\n      dup4\n        /* \"#utility.yul\":4728:4745   */\n      add\n        /* \"#utility.yul\":4724:4751   */\n      slt\n        /* \"#utility.yul\":4714:4836   */\n      tag_212\n      jumpi\n        /* \"#utility.yul\":4755:4834   */\n      tag_213\n      tag_112\n      jump\t// in\n    tag_213:\n        /* \"#utility.yul\":4714:4836   */\n    tag_212:\n        /* \"#utility.yul\":4872:4878   */\n      dup2\n        /* \"#utility.yul\":4859:4879   */\n      calldataload\n        /* \"#utility.yul\":4897:4976   */\n      tag_214\n        /* \"#utility.yul\":4972:4975   */\n      dup5\n        /* \"#utility.yul\":4964:4970   */\n      dup3\n        /* \"#utility.yul\":4957:4961   */\n      0x20\n        /* \"#utility.yul\":4949:4955   */\n      dup7\n        /* \"#utility.yul\":4945:4962   */\n      add\n        /* \"#utility.yul\":4897:4976   */\n      tag_119\n      jump\t// in\n    tag_214:\n        /* \"#utility.yul\":4888:4976   */\n      swap2\n      pop\n        /* \"#utility.yul\":4704:4982   */\n      pop\n        /* \"#utility.yul\":4642:4982   */\n      swap3\n      swap2\n      pop\n      pop\n      jump\t// out\n        /* \"#utility.yul\":4988:5822   */\n    tag_17:\n        /* \"#utility.yul\":5076:5082   */\n      0x00\n        /* \"#utility.yul\":5084:5090   */\n      dup1\n        /* \"#utility.yul\":5133:5135   */\n      0x40\n        /* \"#utility.yul\":5121:5130   */\n      dup4\n        /* \"#utility.yul\":5112:5119   */\n      dup6\n        /* \"#utility.yul\":5108:5131   */\n      sub\n        /* \"#utility.yul\":5104:5136   */\n      slt\n        /* \"#utility.yul\":5101:5220   */\n      iszero\n      tag_216\n      jumpi\n        /* \"#utility.yul\":5139:5218   */\n      tag_217\n      tag_100\n      jump\t// in\n    tag_217:\n        /* \"#utility.yul\":5101:5220   */\n    tag_216:\n        /* \"#utility.yul\":5287:5288   */\n      0x00\n        /* \"#utility.yul\":5276:5285   */\n      dup4\n        /* \"#utility.yul\":5272:5289   */\n      add\n        /* \"#utility.yul\":5259:5290   */\n      calldataload\n        /* \"#utility.yul\":5317:5335   */\n      0xffffffffffffffff\n        /* \"#utility.yul\":5309:5315   */\n      dup2\n        /* \"#utility.yul\":5306:5336   */\n      gt\n        /* \"#utility.yul\":5303:5420   */\n      iszero\n      tag_218\n      jumpi\n        /* \"#utility.yul\":5339:5418   */\n      tag_219\n      tag_101\n      jump\t// in\n    tag_219:\n        /* \"#utility.yul\":5303:5420   */\n    tag_218:\n        /* \"#utility.yul\":5444:5507   */\n      tag_220\n        /* \"#utility.yul\":5499:5506   */\n      dup6\n        /* \"#utility.yul\":5490:5496   */\n      dup3\n        /* \"#utility.yul\":5479:5488   */\n      dup7\n        /* \"#utility.yul\":5475:5497   */\n      add\n        /* \"#utility.yul\":5444:5507   */\n      tag_120\n      jump\t// in\n    tag_220:\n        /* \"#utility.yul\":5434:5507   */\n      swap3\n      pop\n        /* \"#utility.yul\":5230:5517   */\n      pop\n        /* \"#utility.yul\":5584:5586   */\n      0x20\n        /* \"#utility.yul\":5573:5582   */\n      dup4\n        /* \"#utility.yul\":5569:5587   */\n      add\n        /* \"#utility.yul\":5556:5588   */\n      calldataload\n        /* \"#utility.yul\":5615:5633   */\n      0xffffffffffffffff\n        /* \"#utility.yul\":5607:5613   */\n      dup2\n        /* \"#utility.yul\":5604:5634   */\n      gt\n        /* \"#utility.yul\":5601:5718   */\n      iszero\n      tag_221\n      jumpi\n        /* \"#utility.yul\":5637:5716   */\n      tag_222\n      tag_101\n      jump\t// in\n    tag_222:\n        /* \"#utility.yul\":5601:5718   */\n    tag_221:\n        /* \"#utility.yul\":5742:5805   */\n      tag_223\n        /* \"#utility.yul\":5797:5804   */\n      dup6\n        /* \"#utility.yul\":5788:5794   */\n      dup3\n        /* \"#utility.yul\":5777:5786   */\n      dup7\n        /* \"#utility.yul\":5773:5795   */\n      add\n        /* \"#utility.yul\":5742:5805   */\n      tag_120\n      jump\t// in\n    tag_223:\n        /* \"#utility.yul\":5732:5805   */\n      swap2\n      pop\n        /* \"#utility.yul\":5527:5815   */\n      pop\n        /* \"#utility.yul\":4988:5822   */\n      swap3\n      pop\n      swap3\n      swap1\n      pop\n      jump\t// out\n        /* \"#utility.yul\":5828:5954   */\n    tag_121:\n        /* \"#utility.yul\":5865:5872   */\n      0x00\n        /* \"#utility.yul\":5905:5947   */\n      0xffffffffffffffffffffffffffffffffffffffff\n        /* \"#utility.yul\":5898:5903   */\n      dup3\n        /* \"#utility.yul\":5894:5948   */\n      and\n        /* \"#utility.yul\":5883:5948   */\n      swap1\n      pop\n        /* \"#utility.yul\":5828:5954   */\n      swap2\n      swap1\n      pop\n      jump\t// out\n        /* \"#utility.yul\":5960:6056   */\n    tag_122:\n        /* \"#utility.yul\":5997:6004   */\n      0x00\n        /* \"#utility.yul\":6026:6050   */\n      tag_226\n        /* \"#utility.yul\":6044:6049   */\n      dup3\n        /* \"#utility.yul\":6026:6050   */\n      tag_121\n      jump\t// in\n    tag_226:\n        /* \"#utility.yul\":6015:6050   */\n      swap1\n      pop\n        /* \"#utility.yul\":5960:6056   */\n      swap2\n      swap1\n      pop\n      jump\t// out\n        /* \"#utility.yul\":6062:6184   */\n    tag_123:\n        /* \"#utility.yul\":6135:6159   */\n      tag_228\n        /* \"#utility.yul\":6153:6158   */\n      dup2\n        /* \"#utility.yul\":6135:6159   */\n      tag_122\n      jump\t// in\n    tag_228:\n        /* \"#utility.yul\":6128:6133   */\n      dup2\n        /* \"#utility.yul\":6125:6160   */\n      eq\n        /* \"#utility.yul\":6115:6178   */\n      tag_229\n      jumpi\n        /* \"#utility.yul\":6174:6175   */\n      0x00\n        /* \"#utility.yul\":6171:6172   */\n      dup1\n        /* \"#utility.yul\":6164:6176   */\n      revert\n        /* \"#utility.yul\":6115:6178   */\n    tag_229:\n        /* \"#utility.yul\":6062:6184   */\n      pop\n      jump\t// out\n        /* \"#utility.yul\":6190:6329   */\n    tag_124:\n        /* \"#utility.yul\":6236:6241   */\n      0x00\n        /* \"#utility.yul\":6274:6280   */\n      dup2\n        /* \"#utility.yul\":6261:6281   */\n      calldataload\n        /* \"#utility.yul\":6252:6281   */\n      swap1\n      pop\n        /* \"#utility.yul\":6290:6323   */\n      tag_231\n        /* \"#utility.yul\":6317:6322   */\n      dup2\n        /* \"#utility.yul\":6290:6323   */\n      tag_123\n      jump\t// in\n    tag_231:\n        /* \"#utility.yul\":6190:6329   */\n      swap3\n      swap2\n      pop\n      pop\n      jump\t// out\n        /* \"#utility.yul\":6335:6664   */\n    tag_21:\n        /* \"#utility.yul\":6394:6400   */\n      0x00\n        /* \"#utility.yul\":6443:6445   */\n      0x20\n        /* \"#utility.yul\":6431:6440   */\n      dup3\n        /* \"#utility.yul\":6422:6429   */\n      dup5\n        /* \"#utility.yul\":6418:6441   */\n      sub\n        /* \"#utility.yul\":6414:6446   */\n      slt\n        /* \"#utility.yul\":6411:6530   */\n      iszero\n      tag_233\n      jumpi\n        /* \"#utility.yul\":6449:6528   */\n      tag_234\n      tag_100\n      jump\t// in\n    tag_234:\n        /* \"#utility.yul\":6411:6530   */\n    tag_233:\n        /* \"#utility.yul\":6569:6570   */\n      0x00\n        /* \"#utility.yul\":6594:6647   */\n      tag_235\n        /* \"#utility.yul\":6639:6646   */\n      dup5\n        /* \"#utility.yul\":6630:6636   */\n      dup3\n        /* \"#utility.yul\":6619:6628   */\n      dup6\n        /* \"#utility.yul\":6615:6637   */\n      add\n        /* \"#utility.yul\":6594:6647   */\n      tag_124\n      jump\t// in\n    tag_235:\n        /* \"#utility.yul\":6584:6647   */\n      swap2\n      pop\n        /* \"#utility.yul\":6540:6657   */\n      pop\n        /* \"#utility.yul\":6335:6664   */\n      swap3\n      swap2\n      pop\n      pop\n      jump\t// out\n        /* \"#utility.yul\":6670:6788   */\n    tag_125:\n        /* \"#utility.yul\":6757:6781   */\n      tag_237\n        /* \"#utility.yul\":6775:6780   */\n      dup2\n        /* \"#utility.yul\":6757:6781   */\n      tag_102\n      jump\t// in\n    tag_237:\n        /* \"#utility.yul\":6752:6755   */\n      dup3\n        /* \"#utility.yul\":6745:6782   */\n      mstore\n        /* \"#utility.yul\":6670:6788   */\n      pop\n      pop\n      jump\t// out\n        /* \"#utility.yul\":6794:7114   */\n    tag_27:\n        /* \"#utility.yul\":6909:6913   */\n      0x00\n        /* \"#utility.yul\":6947:6949   */\n      0x40\n        /* \"#utility.yul\":6936:6945   */\n      dup3\n        /* \"#utility.yul\":6932:6950   */\n      add\n        /* \"#utility.yul\":6924:6950   */\n      swap1\n      pop\n        /* \"#utility.yul\":6960:7031   */\n      tag_239\n        /* \"#utility.yul\":7028:7029   */\n      0x00\n        /* \"#utility.yul\":7017:7026   */\n      dup4\n        /* \"#utility.yul\":7013:7030   */\n      add\n        /* \"#utility.yul\":7004:7010   */\n      dup6\n        /* \"#utility.yul\":6960:7031   */\n      tag_125\n      jump\t// in\n    tag_239:\n        /* \"#utility.yul\":7041:7107   */\n      tag_240\n        /* \"#utility.yul\":7103:7105   */\n      0x20\n        /* \"#utility.yul\":7092:7101   */\n      dup4\n        /* \"#utility.yul\":7088:7106   */\n      add\n        /* \"#utility.yul\":7079:7085   */\n      dup5\n        /* \"#utility.yul\":7041:7107   */\n      tag_111\n      jump\t// in\n    tag_240:\n        /* \"#utility.yul\":6794:7114   */\n      swap4\n      swap3\n      pop\n      pop\n      pop\n      jump\t// out\n        /* \"#utility.yul\":7120:7594   */\n    tag_30:\n        /* \"#utility.yul\":7188:7194   */\n      0x00\n        /* \"#utility.yul\":7196:7202   */\n      dup1\n        /* \"#utility.yul\":7245:7247   */\n      0x40\n        /* \"#utility.yul\":7233:7242   */\n      dup4\n        /* \"#utility.yul\":7224:7231   */\n      dup6\n        /* \"#utility.yul\":7220:7243   */\n      sub\n        /* \"#utility.yul\":7216:7248   */\n      slt\n        /* \"#utility.yul\":7213:7332   */\n      iszero\n      tag_242\n      jumpi\n        /* \"#utility.yul\":7251:7330   */\n      tag_243\n      tag_100\n      jump\t// in\n    tag_243:\n        /* \"#utility.yul\":7213:7332   */\n    tag_242:\n        /* \"#utility.yul\":7371:7372   */\n      0x00\n        /* \"#utility.yul\":7396:7449   */\n      tag_244\n        /* \"#utility.yul\":7441:7448   */\n      dup6\n        /* \"#utility.yul\":7432:7438   */\n      dup3\n        /* \"#utility.yul\":7421:7430   */\n      dup7\n        /* \"#utility.yul\":7417:7439   */\n      add\n        /* \"#utility.yul\":7396:7449   */\n      tag_104\n      jump\t// in\n    tag_244:\n        /* \"#utility.yul\":7386:7449   */\n      swap3\n      pop\n        /* \"#utility.yul\":7342:7459   */\n      pop\n        /* \"#utility.yul\":7498:7500   */\n      0x20\n        /* \"#utility.yul\":7524:7577   */\n      tag_245\n        /* \"#utility.yul\":7569:7576   */\n      dup6\n        /* \"#utility.yul\":7560:7566   */\n      dup3\n        /* \"#utility.yul\":7549:7558   */\n      dup7\n        /* \"#utility.yul\":7545:7567   */\n      add\n        /* \"#utility.yul\":7524:7577   */\n      tag_104\n      jump\t// in\n    tag_245:\n        /* \"#utility.yul\":7514:7577   */\n      swap2\n      pop\n        /* \"#utility.yul\":7469:7587   */\n      pop\n        /* \"#utility.yul\":7120:7594   */\n      swap3\n      pop\n      swap3\n      swap1\n      pop\n      jump\t// out\n        /* \"#utility.yul\":7600:7780   */\n    tag_126:\n        /* \"#utility.yul\":7648:7725   */\n      0x4e487b7100000000000000000000000000000000000000000000000000000000\n        /* \"#utility.yul\":7645:7646   */\n      0x00\n        /* \"#utility.yul\":7638:7726   */\n      mstore\n        /* \"#utility.yul\":7745:7749   */\n      0x22\n        /* \"#utility.yul\":7742:7743   */\n      0x04\n        /* \"#utility.yul\":7735:7750   */\n      mstore\n        /* \"#utility.yul\":7769:7773   */\n      0x24\n        /* \"#utility.yul\":7766:7767   */\n      0x00\n        /* \"#utility.yul\":7759:7774   */\n      revert\n        /* \"#utility.yul\":7786:8106   */\n    tag_38:\n        /* \"#utility.yul\":7830:7836   */\n      0x00\n        /* \"#utility.yul\":7867:7868   */\n      0x02\n        /* \"#utility.yul\":7861:7865   */\n      dup3\n        /* \"#utility.yul\":7857:7869   */\n      div\n        /* \"#utility.yul\":7847:7869   */\n      swap1\n      pop\n        /* \"#utility.yul\":7914:7915   */\n      0x01\n        /* \"#utility.yul\":7908:7912   */\n      dup3\n        /* \"#utility.yul\":7904:7916   */\n      and\n        /* \"#utility.yul\":7935:7953   */\n      dup1\n        /* \"#utility.yul\":7925:8006   */\n      tag_248\n      jumpi\n        /* \"#utility.yul\":7991:7995   */\n      0x7f\n        /* \"#utility.yul\":7983:7989   */\n      dup3\n        /* \"#utility.yul\":7979:7996   */\n      and\n        /* \"#utility.yul\":7969:7996   */\n      swap2\n      pop\n        /* \"#utility.yul\":7925:8006   */\n    tag_248:\n        /* \"#utility.yul\":8053:8055   */\n      0x20\n        /* \"#utility.yul\":8045:8051   */\n      dup3\n        /* \"#utility.yul\":8042:8056   */\n      lt\n        /* \"#utility.yul\":8022:8040   */\n      dup2\n        /* \"#utility.yul\":8019:8057   */\n      sub\n        /* \"#utility.yul\":8016:8100   */\n      tag_249\n      jumpi\n        /* \"#utility.yul\":8072:8090   */\n      tag_250\n      tag_126\n      jump\t// in\n    tag_250:\n        /* \"#utility.yul\":8016:8100   */\n    tag_249:\n        /* \"#utility.yul\":7837:8106   */\n      pop\n        /* \"#utility.yul\":7786:8106   */\n      swap2\n      swap1\n      pop\n      jump\t// out\n        /* \"#utility.yul\":8112:8292   */\n    tag_127:\n        /* \"#utility.yul\":8252:8284   */\n      0x4f6e6c792061646d696e2063616e206372656174652070726f706f73616c0000\n        /* \"#utility.yul\":8248:8249   */\n      0x00\n        /* \"#utility.yul\":8240:8246   */\n      dup3\n        /* \"#utility.yul\":8236:8250   */\n      add\n        /* \"#utility.yul\":8229:8285   */\n      mstore\n        /* \"#utility.yul\":8112:8292   */\n      pop\n      jump\t// out\n        /* \"#utility.yul\":8298:8664   */\n    tag_128:\n        /* \"#utility.yul\":8440:8443   */\n      0x00\n        /* \"#utility.yul\":8461:8528   */\n      tag_253\n        /* \"#utility.yul\":8525:8527   */\n      0x1e\n        /* \"#utility.yul\":8520:8523   */\n      dup4\n        /* \"#utility.yul\":8461:8528   */\n      tag_106\n      jump\t// in\n    tag_253:\n        /* \"#utility.yul\":8454:8528   */\n      swap2\n      pop\n        /* \"#utility.yul\":8537:8630   */\n      tag_254\n        /* \"#utility.yul\":8626:8629   */\n      dup3\n        /* \"#utility.yul\":8537:8630   */\n      tag_127\n      jump\t// in\n    tag_254:\n        /* \"#utility.yul\":8655:8657   */\n      0x20\n        /* \"#utility.yul\":8650:8653   */\n      dup3\n        /* \"#utility.yul\":8646:8658   */\n      add\n        /* \"#utility.yul\":8639:8658   */\n      swap1\n      pop\n        /* \"#utility.yul\":8298:8664   */\n      swap2\n      swap1\n      pop\n      jump\t// out\n        /* \"#utility.yul\":8670:9089   */\n    tag_51:\n        /* \"#utility.yul\":8836:8840   */\n      0x00\n        /* \"#utility.yul\":8874:8876   */\n      0x20\n        /* \"#utility.yul\":8863:8872   */\n      dup3\n        /* \"#utility.yul\":8859:8877   */\n      add\n        /* \"#utility.yul\":8851:8877   */\n      swap1\n      pop\n        /* \"#utility.yul\":8923:8932   */\n      dup2\n        /* \"#utility.yul\":8917:8921   */\n      dup2\n        /* \"#utility.yul\":8913:8933   */\n      sub\n        /* \"#utility.yul\":8909:8910   */\n      0x00\n        /* \"#utility.yul\":8898:8907   */\n      dup4\n        /* \"#utility.yul\":8894:8911   */\n      add\n        /* \"#utility.yul\":8887:8934   */\n      mstore\n        /* \"#utility.yul\":8951:9082   */\n      tag_256\n        /* \"#utility.yul\":9077:9081   */\n      dup2\n        /* \"#utility.yul\":8951:9082   */\n      tag_128\n      jump\t// in\n    tag_256:\n        /* \"#utility.yul\":8943:9082   */\n      swap1\n      pop\n        /* \"#utility.yul\":8670:9089   */\n      swap2\n      swap1\n      pop\n      jump\t// out\n        /* \"#utility.yul\":9095:9236   */\n    tag_129:\n        /* \"#utility.yul\":9144:9148   */\n      0x00\n        /* \"#utility.yul\":9167:9170   */\n      dup2\n        /* \"#utility.yul\":9159:9170   */\n      swap1\n      pop\n        /* \"#utility.yul\":9190:9193   */\n      dup2\n        /* \"#utility.yul\":9187:9188   */\n      0x00\n        /* \"#utility.yul\":9180:9194   */\n      mstore\n        /* \"#utility.yul\":9224:9228   */\n      0x20\n        /* \"#utility.yul\":9221:9222   */\n      0x00\n        /* \"#utility.yul\":9211:9229   */\n      keccak256\n        /* \"#utility.yul\":9203:9229   */\n      swap1\n      pop\n        /* \"#utility.yul\":9095:9236   */\n      swap2\n      swap1\n      pop\n      jump\t// out\n        /* \"#utility.yul\":9242:9335   */\n    tag_130:\n        /* \"#utility.yul\":9279:9285   */\n      0x00\n        /* \"#utility.yul\":9326:9328   */\n      0x20\n        /* \"#utility.yul\":9321:9323   */\n      0x1f\n        /* \"#utility.yul\":9314:9319   */\n      dup4\n        /* \"#utility.yul\":9310:9324   */\n      add\n        /* \"#utility.yul\":9306:9329   */\n      div\n        /* \"#utility.yul\":9296:9329   */\n      swap1\n      pop\n        /* \"#utility.yul\":9242:9335   */\n      swap2\n      swap1\n      pop\n      jump\t// out\n        /* \"#utility.yul\":9341:9448   */\n    tag_131:\n        /* \"#utility.yul\":9385:9393   */\n      0x00\n        /* \"#utility.yul\":9435:9440   */\n      dup3\n        /* \"#utility.yul\":9429:9433   */\n      dup3\n        /* \"#utility.yul\":9425:9441   */\n      shl\n        /* \"#utility.yul\":9404:9441   */\n      swap1\n      pop\n        /* \"#utility.yul\":9341:9448   */\n      swap3\n      swap2\n      pop\n      pop\n      jump\t// out\n        /* \"#utility.yul\":9454:9847   */\n    tag_132:\n        /* \"#utility.yul\":9523:9529   */\n      0x00\n        /* \"#utility.yul\":9573:9574   */\n      0x08\n        /* \"#utility.yul\":9561:9571   */\n      dup4\n        /* \"#utility.yul\":9557:9575   */\n      mul\n        /* \"#utility.yul\":9596:9693   */\n      tag_261\n        /* \"#utility.yul\":9626:9692   */\n      0xffffffffffffffffffffffffffffffffffffffffffffffffffffffffffffffff\n        /* \"#utility.yul\":9615:9624   */\n      dup3\n        /* \"#utility.yul\":9596:9693   */\n      tag_131\n      jump\t// in\n    tag_261:\n        /* \"#utility.yul\":9714:9753   */\n      tag_262\n        /* \"#utility.yul\":9744:9752   */\n      dup7\n        /* \"#utility.yul\":9733:9742   */\n      dup4\n        /* \"#utility.yul\":9714:9753   */\n      tag_131\n      jump\t// in\n    tag_262:\n        /* \"#utility.yul\":9702:9753   */\n      swap6\n      pop\n        /* \"#utility.yul\":9786:9790   */\n      dup1\n        /* \"#utility.yul\":9782:9791   */\n      not\n        /* \"#utility.yul\":9775:9780   */\n      dup5\n        /* \"#utility.yul\":9771:9792   */\n      and\n        /* \"#utility.yul\":9762:9792   */\n      swap4\n      pop\n        /* \"#utility.yul\":9835:9839   */\n      dup1\n        /* \"#utility.yul\":9825:9833   */\n      dup7\n        /* \"#utility.yul\":9821:9840   */\n      and\n        /* \"#utility.yul\":9814:9819   */\n      dup5\n        /* \"#utility.yul\":9811:9841   */\n      or\n        /* \"#utility.yul\":9801:9841   */\n      swap3\n      pop\n        /* \"#utility.yul\":9530:9847   */\n      pop\n      pop\n        /* \"#utility.yul\":9454:9847   */\n      swap4\n      swap3\n      pop\n      pop\n      pop\n      jump\t// out\n        /* \"#utility.yul\":9853:9913   */\n    tag_133:\n        /* \"#utility.yul\":9881:9884   */\n      0x00\n        /* \"#utility.yul\":9902:9907   */\n      dup2\n        /* \"#utility.yul\":9895:9907   */\n      swap1\n      pop\n        /* \"#utility.yul\":9853:9913   */\n      swap2\n      swap1\n      pop\n      jump\t// out\n        /* \"#utility.yul\":9919:10061   */\n    tag_134:\n        /* \"#utility.yul\":9969:9978   */\n      0x00\n        /* \"#utility.yul\":10002:10055   */\n      tag_265\n        /* \"#utility.yul\":10020:10054   */\n      tag_266\n        /* \"#utility.yul\":10029:10053   */\n      tag_267\n        /* \"#utility.yul\":10047:10052   */\n      dup5\n        /* \"#utility.yul\":10029:10053   */\n      tag_102\n      jump\t// in\n    tag_267:\n        /* \"#utility.yul\":10020:10054   */\n      tag_133\n      jump\t// in\n    tag_266:\n        /* \"#utility.yul\":10002:10055   */\n      tag_102\n      jump\t// in\n    tag_265:\n        /* \"#utility.yul\":9989:10055   */\n      swap1\n      pop\n        /* \"#utility.yul\":9919:10061   */\n      swap2\n      swap1\n      pop\n      jump\t// out\n        /* \"#utility.yul\":10067:10142   */\n    tag_135:\n        /* \"#utility.yul\":10110:10113   */\n      0x00\n        /* \"#utility.yul\":10131:10136   */\n      dup2\n        /* \"#utility.yul\":10124:10136   */\n      swap1\n      pop\n        /* \"#utility.yul\":10067:10142   */\n      swap2\n      swap1\n      pop\n      jump\t// out\n        /* \"#utility.yul\":10148:10417   */\n    tag_136:\n        /* \"#utility.yul\":10258:10297   */\n      tag_270\n        /* \"#utility.yul\":10289:10296   */\n      dup4\n        /* \"#utility.yul\":10258:10297   */\n      tag_134\n      jump\t// in\n    tag_270:\n        /* \"#utility.yul\":10319:10410   */\n      tag_271\n        /* \"#utility.yul\":10368:10409   */\n      tag_272\n        /* \"#utility.yul\":10392:10408   */\n      dup3\n        /* \"#utility.yul\":10368:10409   */\n      tag_135\n      jump\t// in\n    tag_272:\n        /* \"#utility.yul\":10360:10366   */\n      dup5\n        /* \"#utility.yul\":10353:10357   */\n      dup5\n        /* \"#utility.yul\":10347:10358   */\n      sload\n        /* \"#utility.yul\":10319:10410   */\n      tag_132\n      jump\t// in\n    tag_271:\n        /* \"#utility.yul\":10313:10317   */\n      dup3\n        /* \"#utility.yul\":10306:10411   */\n      sstore\n        /* \"#utility.yul\":10224:10417   */\n      pop\n        /* \"#utility.yul\":10148:10417   */\n      pop\n      pop\n      pop\n      jump\t// out\n        /* \"#utility.yul\":10423:10496   */\n    tag_137:\n        /* \"#utility.yul\":10468:10471   */\n      0x00\n        /* \"#utility.yul\":10423:10496   */\n      swap1\n      jump\t// out\n        /* \"#utility.yul\":10502:10691   */\n    tag_138:\n        /* \"#utility.yul\":10579:10611   */\n      tag_275\n      tag_137\n      jump\t// in\n    tag_275:\n        /* \"#utility.yul\":10620:10685   */\n      tag_276\n        /* \"#utility.yul\":10678:10684   */\n      dup2\n        /* \"#utility.yul\":10670:10676   */\n      dup5\n        /* \"#utility.yul\":10664:10668   */\n      dup5\n        /* \"#utility.yul\":10620:10685   */\n      tag_136\n      jump\t// in\n    tag_276:\n        /* \"#utility.yul\":10555:10691   */\n      pop\n        /* \"#utility.yul\":10502:10691   */\n      pop\n      pop\n      jump\t// out\n        /* \"#utility.yul\":10697:10883   */\n    tag_139:\n        /* \"#utility.yul\":10757:10877   */\n    tag_278:\n        /* \"#utility.yul\":10774:10777   */\n      dup2\n        /* \"#utility.yul\":10767:10772   */\n      dup2\n        /* \"#utility.yul\":10764:10778   */\n      lt\n        /* \"#utility.yul\":10757:10877   */\n      iszero\n      tag_280\n      jumpi\n        /* \"#utility.yul\":10828:10867   */\n      tag_281\n        /* \"#utility.yul\":10865:10866   */\n      0x00\n        /* \"#utility.yul\":10858:10863   */\n      dup3\n        /* \"#utility.yul\":10828:10867   */\n      tag_138\n      jump\t// in\n    tag_281:\n        /* \"#utility.yul\":10801:10802   */\n      0x01\n        /* \"#utility.yul\":10794:10799   */\n      dup2\n        /* \"#utility.yul\":10790:10803   */\n      add\n        /* \"#utility.yul\":10781:10803   */\n      swap1\n      pop\n        /* \"#utility.yul\":10757:10877   */\n      jump(tag_278)\n    tag_280:\n        /* \"#utility.yul\":10697:10883   */\n      pop\n      pop\n      jump\t// out\n        /* \"#utility.yul\":10889:11432   */\n    tag_140:\n        /* \"#utility.yul\":10990:10992   */\n      0x1f\n        /* \"#utility.yul\":10985:10988   */\n      dup3\n        /* \"#utility.yul\":10982:10993   */\n      gt\n        /* \"#utility.yul\":10979:11425   */\n      iszero\n      tag_283\n      jumpi\n        /* \"#utility.yul\":11024:11062   */\n      tag_284\n        /* \"#utility.yul\":11056:11061   */\n      dup2\n        /* \"#utility.yul\":11024:11062   */\n      tag_129\n      jump\t// in\n    tag_284:\n        /* \"#utility.yul\":11108:11137   */\n      tag_285\n        /* \"#utility.yul\":11126:11136   */\n      dup5\n        /* \"#utility.yul\":11108:11137   */\n      tag_130\n      jump\t// in\n    tag_285:\n        /* \"#utility.yul\":11098:11106   */\n      dup2\n        /* \"#utility.yul\":11094:11138   */\n      add\n        /* \"#utility.yul\":11291:11293   */\n      0x20\n        /* \"#utility.yul\":11279:11289   */\n      dup6\n        /* \"#utility.yul\":11276:11294   */\n      lt\n        /* \"#utility.yul\":11273:11322   */\n      iszero\n      tag_286\n      jumpi\n        /* \"#utility.yul\":11312:11320   */\n      dup2\n        /* \"#utility.yul\":11297:11320   */\n      swap1\n      pop\n        /* \"#utility.yul\":11273:11322   */\n    tag_286:\n        /* \"#utility.yul\":11335:11415   */\n      tag_287\n        /* \"#utility.yul\":11391:11413   */\n      tag_288\n        /* \"#utility.yul\":11409:11412   */\n      dup6\n        /* \"#utility.yul\":11391:11413   */\n      tag_130\n      jump\t// in\n    tag_288:\n        /* \"#utility.yul\":11381:11389   */\n      dup4\n        /* \"#utility.yul\":11377:11414   */\n      add\n        /* \"#utility.yul\":11364:11375   */\n      dup3\n        /* \"#utility.yul\":11335:11415   */\n      tag_139\n      jump\t// in\n    tag_287:\n        /* \"#utility.yul\":10994:11425   */\n      pop\n      pop\n        /* \"#utility.yul\":10979:11425   */\n    tag_283:\n        /* \"#utility.yul\":10889:11432   */\n      pop\n      pop\n      pop\n      jump\t// out\n        /* \"#utility.yul\":11438:11555   */\n    tag_141:\n        /* \"#utility.yul\":11492:11500   */\n      0x00\n        /* \"#utility.yul\":11542:11547   */\n      dup3\n        /* \"#utility.yul\":11536:11540   */\n      dup3\n        /* \"#utility.yul\":11532:11548   */\n      shr\n        /* \"#utility.yul\":11511:11548   */\n      swap1\n      pop\n        /* \"#utility.yul\":11438:11555   */\n      swap3\n      swap2\n      pop\n      pop\n      jump\t// out\n        /* \"#utility.yul\":11561:11730   */\n    tag_142:\n        /* \"#utility.yul\":11605:11611   */\n      0x00\n        /* \"#utility.yul\":11638:11689   */\n      tag_291\n        /* \"#utility.yul\":11686:11687   */\n      0x00\n        /* \"#utility.yul\":11682:11688   */\n      not\n        /* \"#utility.yul\":11674:11679   */\n      dup5\n        /* \"#utility.yul\":11671:11672   */\n      0x08\n        /* \"#utility.yul\":11667:11680   */\n      mul\n        /* \"#utility.yul\":11638:11689   */\n      tag_141\n      jump\t// in\n    tag_291:\n        /* \"#utility.yul\":11634:11690   */\n      not\n        /* \"#utility.yul\":11719:11723   */\n      dup1\n        /* \"#utility.yul\":11713:11717   */\n      dup4\n        /* \"#utility.yul\":11709:11724   */\n      and\n        /* \"#utility.yul\":11699:11724   */\n      swap2\n      pop\n        /* \"#utility.yul\":11612:11730   */\n      pop\n        /* \"#utility.yul\":11561:11730   */\n      swap3\n      swap2\n      pop\n      pop\n      jump\t// out\n        /* \"#utility.yul\":11735:12030   */\n    tag_143:\n        /* \"#utility.yul\":11811:11815   */\n      0x00\n        /* \"#utility.yul\":11957:11986   */\n      tag_293\n        /* \"#utility.yul\":11982:11985   */\n      dup4\n        /* \"#utility.yul\":11976:11980   */\n      dup4\n        /* \"#utility.yul\":11957:11986   */\n      tag_142\n      jump\t// in\n    tag_293:\n        /* \"#utility.yul\":11949:11986   */\n      swap2\n      pop\n        /* \"#utility.yul\":12019:12022   */\n      dup3\n        /* \"#utility.yul\":12016:12017   */\n      0x02\n        /* \"#utility.yul\":12012:12023   */\n      mul\n        /* \"#utility.yul\":12006:12010   */\n      dup3\n        /* \"#utility.yul\":12003:12024   */\n      or\n        /* \"#utility.yul\":11995:12024   */\n      swap1\n      pop\n        /* \"#utility.yul\":11735:12030   */\n      swap3\n      swap2\n      pop\n      pop\n      jump\t// out\n        /* \"#utility.yul\":12035:13430   */\n    tag_54:\n        /* \"#utility.yul\":12152:12189   */\n      tag_295\n        /* \"#utility.yul\":12185:12188   */\n      dup3\n        /* \"#utility.yul\":12152:12189   */\n      tag_105\n      jump\t// in\n    tag_295:\n        /* \"#utility.yul\":12254:12272   */\n      0xffffffffffffffff\n        /* \"#utility.yul\":12246:12252   */\n      dup2\n        /* \"#utility.yul\":12243:12273   */\n      gt\n        /* \"#utility.yul\":12240:12296   */\n      iszero\n      tag_296\n      jumpi\n        /* \"#utility.yul\":12276:12294   */\n      tag_297\n      tag_114\n      jump\t// in\n    tag_297:\n        /* \"#utility.yul\":12240:12296   */\n    tag_296:\n        /* \"#utility.yul\":12320:12358   */\n      tag_298\n        /* \"#utility.yul\":12352:12356   */\n      dup3\n        /* \"#utility.yul\":12346:12357   */\n      sload\n        /* \"#utility.yul\":12320:12358   */\n      tag_38\n      jump\t// in\n    tag_298:\n        /* \"#utility.yul\":12405:12472   */\n      tag_299\n        /* \"#utility.yul\":12465:12471   */\n      dup3\n        /* \"#utility.yul\":12457:12463   */\n      dup3\n        /* \"#utility.yul\":12451:12455   */\n      dup6\n        /* \"#utility.yul\":12405:12472   */\n      tag_140\n      jump\t// in\n    tag_299:\n        /* \"#utility.yul\":12499:12500   */\n      0x00\n        /* \"#utility.yul\":12523:12527   */\n      0x20\n        /* \"#utility.yul\":12510:12527   */\n      swap1\n      pop\n        /* \"#utility.yul\":12555:12557   */\n      0x1f\n        /* \"#utility.yul\":12547:12553   */\n      dup4\n        /* \"#utility.yul\":12544:12558   */\n      gt\n        /* \"#utility.yul\":12572:12573   */\n      0x01\n        /* \"#utility.yul\":12567:13185   */\n      dup2\n      eq\n      tag_301\n      jumpi\n        /* \"#utility.yul\":13229:13230   */\n      0x00\n        /* \"#utility.yul\":13246:13252   */\n      dup5\n        /* \"#utility.yul\":13243:13320   */\n      iszero\n      tag_302\n      jumpi\n        /* \"#utility.yul\":13295:13304   */\n      dup3\n        /* \"#utility.yul\":13290:13293   */\n      dup8\n        /* \"#utility.yul\":13286:13305   */\n      add\n        /* \"#utility.yul\":13280:13306   */\n      mload\n        /* \"#utility.yul\":13271:13306   */\n      swap1\n      pop\n        /* \"#utility.yul\":13243:13320   */\n    tag_302:\n        /* \"#utility.yul\":13346:13413   */\n      tag_303\n        /* \"#utility.yul\":13406:13412   */\n      dup6\n        /* \"#utility.yul\":13399:13404   */\n      dup3\n        /* \"#utility.yul\":13346:13413   */\n      tag_143\n      jump\t// in\n    tag_303:\n        /* \"#utility.yul\":13340:13344   */\n      dup7\n        /* \"#utility.yul\":13333:13414   */\n      sstore\n        /* \"#utility.yul\":13202:13424   */\n      pop\n        /* \"#utility.yul\":12537:13424   */\n      jump(tag_300)\n        /* \"#utility.yul\":12567:13185   */\n    tag_301:\n        /* \"#utility.yul\":12619:12623   */\n      0x1f\n        /* \"#utility.yul\":12615:12624   */\n      not\n        /* \"#utility.yul\":12607:12613   */\n      dup5\n        /* \"#utility.yul\":12603:12625   */\n      and\n        /* \"#utility.yul\":12653:12690   */\n      tag_304\n        /* \"#utility.yul\":12685:12689   */\n      dup7\n        /* \"#utility.yul\":12653:12690   */\n      tag_129\n      jump\t// in\n    tag_304:\n        /* \"#utility.yul\":12712:12713   */\n      0x00\n        /* \"#utility.yul\":12726:12934   */\n    tag_305:\n        /* \"#utility.yul\":12740:12747   */\n      dup3\n        /* \"#utility.yul\":12737:12738   */\n      dup2\n        /* \"#utility.yul\":12734:12748   */\n      lt\n        /* \"#utility.yul\":12726:12934   */\n      iszero\n      tag_307\n      jumpi\n        /* \"#utility.yul\":12819:12828   */\n      dup5\n        /* \"#utility.yul\":12814:12817   */\n      dup10\n        /* \"#utility.yul\":12810:12829   */\n      add\n        /* \"#utility.yul\":12804:12830   */\n      mload\n        /* \"#utility.yul\":12796:12802   */\n      dup3\n        /* \"#utility.yul\":12789:12831   */\n      sstore\n        /* \"#utility.yul\":12870:12871   */\n      0x01\n        /* \"#utility.yul\":12862:12868   */\n      dup3\n        /* \"#utility.yul\":12858:12872   */\n      add\n        /* \"#utility.yul\":12848:12872   */\n      swap2\n      pop\n        /* \"#utility.yul\":12917:12919   */\n      0x20\n        /* \"#utility.yul\":12906:12915   */\n      dup6\n        /* \"#utility.yul\":12902:12920   */\n      add\n        /* \"#utility.yul\":12889:12920   */\n      swap5\n      pop\n        /* \"#utility.yul\":12763:12767   */\n      0x20\n        /* \"#utility.yul\":12760:12761   */\n      dup2\n        /* \"#utility.yul\":12756:12768   */\n      add\n        /* \"#utility.yul\":12751:12768   */\n      swap1\n      pop\n        /* \"#utility.yul\":12726:12934   */\n      jump(tag_305)\n    tag_307:\n        /* \"#utility.yul\":12962:12968   */\n      dup7\n        /* \"#utility.yul\":12953:12960   */\n      dup4\n        /* \"#utility.yul\":12950:12969   */\n      lt\n        /* \"#utility.yul\":12947:13126   */\n      iszero\n      tag_308\n      jumpi\n        /* \"#utility.yul\":13020:13029   */\n      dup5\n        /* \"#utility.yul\":13015:13018   */\n      dup10\n        /* \"#utility.yul\":13011:13030   */\n      add\n        /* \"#utility.yul\":13005:13031   */\n      mload\n        /* \"#utility.yul\":13063:13111   */\n      tag_309\n        /* \"#utility.yul\":13105:13109   */\n      0x1f\n        /* \"#utility.yul\":13097:13103   */\n      dup10\n        /* \"#utility.yul\":13093:13110   */\n      and\n        /* \"#utility.yul\":13082:13091   */\n      dup3\n        /* \"#utility.yul\":13063:13111   */\n      tag_142\n      jump\t// in\n    tag_309:\n        /* \"#utility.yul\":13055:13061   */\n      dup4\n        /* \"#utility.yul\":13048:13112   */\n      sstore\n        /* \"#utility.yul\":12970:13126   */\n      pop\n        /* \"#utility.yul\":12947:13126   */\n    tag_308:\n        /* \"#utility.yul\":13172:13173   */\n      0x01\n        /* \"#utility.yul\":13168:13169   */\n      0x02\n        /* \"#utility.yul\":13160:13166   */\n      dup9\n        /* \"#utility.yul\":13156:13170   */\n      mul\n        /* \"#utility.yul\":13152:13174   */\n      add\n        /* \"#utility.yul\":13146:13150   */\n      dup9\n        /* \"#utility.yul\":13139:13175   */\n      sstore\n        /* \"#utility.yul\":12574:13185   */\n      pop\n      pop\n      pop\n        /* \"#utility.yul\":12537:13424   */\n    tag_300:\n      pop\n        /* \"#utility.yul\":12127:13430   */\n      pop\n      pop\n      pop\n        /* \"#utility.yul\":12035:13430   */\n      pop\n      pop\n      jump\t// out\n        /* \"#utility.yul\":13436:13610   */\n    tag_144:\n        /* \"#utility.yul\":13576:13602   */\n      0x4f6e6c792061646d696e2063616e207365742061646d696e0000000000000000\n        /* \"#utility.yul\":13572:13573   */\n      0x00\n        /* \"#utility.yul\":13564:13570   */\n      dup3\n        /* \"#utility.yul\":13560:13574   */\n      add\n        /* \"#utility.yul\":13553:13603   */\n      mstore\n        /* \"#utility.yul\":13436:13610   */\n      pop\n      jump\t// out\n        /* \"#utility.yul\":13616:13982   */\n    tag_145:\n        /* \"#utility.yul\":13758:13761   */\n      0x00\n        /* \"#utility.yul\":13779:13846   */\n      tag_312\n        /* \"#utility.yul\":13843:13845   */\n      0x18\n        /* \"#utility.yul\":13838:13841   */\n      dup4\n        /* \"#utility.yul\":13779:13846   */\n      tag_106\n      jump\t// in\n    tag_312:\n        /* \"#utility.yul\":13772:13846   */\n      swap2\n      pop\n        /* \"#utility.yul\":13855:13948   */\n      tag_313\n        /* \"#utility.yul\":13944:13947   */\n      dup3\n        /* \"#utility.yul\":13855:13948   */\n      tag_144\n      jump\t// in\n    tag_313:\n        /* \"#utility.yul\":13973:13975   */\n      0x20\n        /* \"#utility.yul\":13968:13971   */\n      dup3\n        /* \"#utility.yul\":13964:13976   */\n      add\n        /* \"#utility.yul\":13957:13976   */\n      swap1\n      pop\n        /* \"#utility.yul\":13616:13982   */\n      swap2\n      swap1\n      pop\n      jump\t// out\n        /* \"#utility.yul\":13988:14407   */\n    tag_59:\n        /* \"#utility.yul\":14154:14158   */\n      0x00\n        /* \"#utility.yul\":14192:14194   */\n      0x20\n        /* \"#utility.yul\":14181:14190   */\n      dup3\n        /* \"#utility.yul\":14177:14195   */\n      add\n        /* \"#utility.yul\":14169:14195   */\n      swap1\n      pop\n        /* \"#utility.yul\":14241:14250   */\n      dup2\n        /* \"#utility.yul\":14235:14239   */\n      dup2\n        /* \"#utility.yul\":14231:14251   */\n      sub\n        /* \"#utility.yul\":14227:14228   */\n      0x00\n        /* \"#utility.yul\":14216:14225   */\n      dup4\n        /* \"#utility.yul\":14212:14229   */\n      add\n        /* \"#utility.yul\":14205:14252   */\n      mstore\n        /* \"#utility.yul\":14269:14400   */\n      tag_315\n        /* \"#utility.yul\":14395:14399   */\n      dup2\n        /* \"#utility.yul\":14269:14400   */\n      tag_145\n      jump\t// in\n    tag_315:\n        /* \"#utility.yul\":14261:14400   */\n      swap1\n      pop\n        /* \"#utility.yul\":13988:14407   */\n      swap2\n      swap1\n      pop\n      jump\t// out\n        /* \"#utility.yul\":14413:14592   */\n    tag_146:\n        /* \"#utility.yul\":14553:14584   */\n      0x4f6e6c792061646d696e2063616e20636c6f73652070726f706f73616c000000\n        /* \"#utility.yul\":14549:14550   */\n      0x00\n        /* \"#utility.yul\":14541:14547   */\n      dup3\n        /* \"#utility.yul\":14537:14551   */\n      add\n        /* \"#utility.yul\":14530:14585   */\n      mstore\n        /* \"#utility.yul\":14413:14592   */\n      pop\n      jump\t// out\n        /* \"#utility.yul\":14598:14964   */\n    tag_147:\n        /* \"#utility.yul\":14740:14743   */\n      0x00\n        /* \"#utility.yul\":14761:14828   */\n      tag_318\n        /* \"#utility.yul\":14825:14827   */\n      0x1d\n        /* \"#utility.yul\":14820:14823   */\n      dup4\n        /* \"#utility.yul\":14761:14828   */\n      tag_106\n      jump\t// in\n    tag_318:\n        /* \"#utility.yul\":14754:14828   */\n      swap2\n      pop\n        /* \"#utility.yul\":14837:14930   */\n      tag_319\n        /* \"#utility.yul\":14926:14929   */\n      dup3\n        /* \"#utility.yul\":14837:14930   */\n      tag_146\n      jump\t// in\n    tag_319:\n        /* \"#utility.yul\":14955:14957   */\n      0x20\n        /* \"#utility.yul\":14950:14953   */\n      dup3\n        /* \"#utility.yul\":14946:14958   */\n      add\n        /* \"#utility.yul\":14939:14958   */\n      swap1\n      pop\n        /* \"#utility.yul\":14598:14964   */\n      swap2\n      swap1\n      pop\n      jump\t// out\n        /* \"#utility.yul\":14970:15389   */\n    tag_63:\n        /* \"#utility.yul\":15136:15140   */\n      0x00\n        /* \"#utility.yul\":15174:15176   */\n      0x20\n        /* \"#utility.yul\":15163:15172   */\n      dup3\n        /* \"#utility.yul\":15159:15177   */\n      add\n        /* \"#utility.yul\":15151:15177   */\n      swap1\n      pop\n        /* \"#utility.yul\":15223:15232   */\n      dup2\n        /* \"#utility.yul\":15217:15221   */\n      dup2\n        /* \"#utility.yul\":15213:15233   */\n      sub\n        /* \"#utility.yul\":15209:15210   */\n      0x00\n        /* \"#utility.yul\":15198:15207   */\n      dup4\n        /* \"#utility.yul\":15194:15211   */\n      add\n        /* \"#utility.yul\":15187:15234   */\n      mstore\n        /* \"#utility.yul\":15251:15382   */\n      tag_321\n        /* \"#utility.yul\":15377:15381   */\n      dup2\n        /* \"#utility.yul\":15251:15382   */\n      tag_147\n      jump\t// in\n    tag_321:\n        /* \"#utility.yul\":15243:15382   */\n      swap1\n      pop\n        /* \"#utility.yul\":14970:15389   */\n      swap2\n      swap1\n      pop\n      jump\t// out\n        /* \"#utility.yul\":15395:15567   */\n    tag_148:\n        /* \"#utility.yul\":15535:15559   */\n      0x496e76616c69642070726f706f73616c20696e64657800000000000000000000\n        /* \"#utility.yul\":15531:15532   */\n      0x00\n        /* \"#utility.yul\":15523:15529   */\n      dup3\n        /* \"#utility.yul\":15519:15533   */\n      add\n        /* \"#utility.yul\":15512:15560   */\n      mstore\n        /* \"#utility.yul\":15395:15567   */\n      pop\n      jump\t// out\n        /* \"#utility.yul\":15573:15939   */\n    tag_149:\n        /* \"#utility.yul\":15715:15718   */\n      0x00\n        /* \"#utility.yul\":15736:15803   */\n      tag_324\n        /* \"#utility.yul\":15800:15802   */\n      0x16\n        /* \"#utility.yul\":15795:15798   */\n      dup4\n        /* \"#utility.yul\":15736:15803   */\n      tag_106\n      jump\t// in\n    tag_324:\n        /* \"#utility.yul\":15729:15803   */\n      swap2\n      pop\n        /* \"#utility.yul\":15812:15905   */\n      tag_325\n        /* \"#utility.yul\":15901:15904   */\n      dup3\n        /* \"#utility.yul\":15812:15905   */\n      tag_148\n      jump\t// in\n    tag_325:\n        /* \"#utility.yul\":15930:15932   */\n      0x20\n        /* \"#utility.yul\":15925:15928   */\n      dup3\n        /* \"#utility.yul\":15921:15933   */\n      add\n        /* \"#utility.yul\":15914:15933   */\n      swap1\n      pop\n        /* \"#utility.yul\":15573:15939   */\n      swap2\n      swap1\n      pop\n      jump\t// out\n        /* \"#utility.yul\":15945:16364   */\n    tag_67:\n        /* \"#utility.yul\":16111:16115   */\n      0x00\n        /* \"#utility.yul\":16149:16151   */\n      0x20\n        /* \"#utility.yul\":16138:16147   */\n      dup3\n        /* \"#utility.yul\":16134:16152   */\n      add\n        /* \"#utility.yul\":16126:16152   */\n      swap1\n      pop\n        /* \"#utility.yul\":16198:16207   */\n      dup2\n        /* \"#utility.yul\":16192:16196   */\n      dup2\n        /* \"#utility.yul\":16188:16208   */\n      sub\n        /* \"#utility.yul\":16184:16185   */\n      0x00\n        /* \"#utility.yul\":16173:16182   */\n      dup4\n        /* \"#utility.yul\":16169:16186   */\n      add\n        /* \"#utility.yul\":16162:16209   */\n      mstore\n        /* \"#utility.yul\":16226:16357   */\n      tag_327\n        /* \"#utility.yul\":16352:16356   */\n      dup2\n        /* \"#utility.yul\":16226:16357   */\n      tag_149\n      jump\t// in\n    tag_327:\n        /* \"#utility.yul\":16218:16357   */\n      swap1\n      pop\n        /* \"#utility.yul\":15945:16364   */\n      swap2\n      swap1\n      pop\n      jump\t// out\n        /* \"#utility.yul\":16370:16550   */\n    tag_70:\n        /* \"#utility.yul\":16418:16495   */\n      0x4e487b7100000000000000000000000000000000000000000000000000000000\n        /* \"#utility.yul\":16415:16416   */\n      0x00\n        /* \"#utility.yul\":16408:16496   */\n      mstore\n        /* \"#utility.yul\":16515:16519   */\n      0x32\n        /* \"#utility.yul\":16512:16513   */\n      0x04\n        /* \"#utility.yul\":16505:16520   */\n      mstore\n        /* \"#utility.yul\":16539:16543   */\n      0x24\n        /* \"#utility.yul\":16536:16537   */\n      0x00\n        /* \"#utility.yul\":16529:16544   */\n      revert\n        /* \"#utility.yul\":16556:16732   */\n    tag_150:\n        /* \"#utility.yul\":16696:16724   */\n      0x50726f706f73616c20697320616c726561647920636c6f736564000000000000\n        /* \"#utility.yul\":16692:16693   */\n      0x00\n        /* \"#utility.yul\":16684:16690   */\n      dup3\n        /* \"#utility.yul\":16680:16694   */\n      add\n        /* \"#utility.yul\":16673:16725   */\n      mstore\n        /* \"#utility.yul\":16556:16732   */\n      pop\n      jump\t// out\n        /* \"#utility.yul\":16738:17104   */\n    tag_151:\n        /* \"#utility.yul\":16880:16883   */\n      0x00\n        /* \"#utility.yul\":16901:16968   */\n      tag_331\n        /* \"#utility.yul\":16965:16967   */\n      0x1a\n        /* \"#utility.yul\":16960:16963   */\n      dup4\n        /* \"#utility.yul\":16901:16968   */\n      tag_106\n      jump\t// in\n    tag_331:\n        /* \"#utility.yul\":16894:16968   */\n      swap2\n      pop\n        /* \"#utility.yul\":16977:17070   */\n      tag_332\n        /* \"#utility.yul\":17066:17069   */\n      dup3\n        /* \"#utility.yul\":16977:17070   */\n      tag_150\n      jump\t// in\n    tag_332:\n        /* \"#utility.yul\":17095:17097   */\n      0x20\n        /* \"#utility.yul\":17090:17093   */\n      dup3\n        /* \"#utility.yul\":17086:17098   */\n      add\n        /* \"#utility.yul\":17079:17098   */\n      swap1\n      pop\n        /* \"#utility.yul\":16738:17104   */\n      swap2\n      swap1\n      pop\n      jump\t// out\n        /* \"#utility.yul\":17110:17529   */\n    tag_74:\n        /* \"#utility.yul\":17276:17280   */\n      0x00\n        /* \"#utility.yul\":17314:17316   */\n      0x20\n        /* \"#utility.yul\":17303:17312   */\n      dup3\n        /* \"#utility.yul\":17299:17317   */\n      add\n        /* \"#utility.yul\":17291:17317   */\n      swap1\n      pop\n        /* \"#utility.yul\":17363:17372   */\n      dup2\n        /* \"#utility.yul\":17357:17361   */\n      dup2\n        /* \"#utility.yul\":17353:17373   */\n      sub\n        /* \"#utility.yul\":17349:17350   */\n      0x00\n        /* \"#utility.yul\":17338:17347   */\n      dup4\n        /* \"#utility.yul\":17334:17351   */\n      add\n        /* \"#utility.yul\":17327:17374   */\n      mstore\n        /* \"#utility.yul\":17391:17522   */\n      tag_334\n        /* \"#utility.yul\":17517:17521   */\n      dup2\n        /* \"#utility.yul\":17391:17522   */\n      tag_151\n      jump\t// in\n    tag_334:\n        /* \"#utility.yul\":17383:17522   */\n      swap1\n      pop\n        /* \"#utility.yul\":17110:17529   */\n      swap2\n      swap1\n      pop\n      jump\t// out\n        /* \"#utility.yul\":17535:17715   */\n    tag_152:\n        /* \"#utility.yul\":17583:17660   */\n      0x4e487b7100000000000000000000000000000000000000000000000000000000\n        /* \"#utility.yul\":17580:17581   */\n      0x00\n        /* \"#utility.yul\":17573:17661   */\n      mstore\n        /* \"#utility.yul\":17680:17684   */\n      0x11\n        /* \"#utility.yul\":17677:17678   */\n      0x04\n        /* \"#utility.yul\":17670:17685   */\n      mstore\n        /* \"#utility.yul\":17704:17708   */\n      0x24\n        /* \"#utility.yul\":17701:17702   */\n      0x00\n        /* \"#utility.yul\":17694:17709   */\n      revert\n        /* \"#utility.yul\":17721:17954   */\n    tag_83:\n        /* \"#utility.yul\":17760:17763   */\n      0x00\n        /* \"#utility.yul\":17783:17807   */\n      tag_337\n        /* \"#utility.yul\":17801:17806   */\n      dup3\n        /* \"#utility.yul\":17783:17807   */\n      tag_102\n      jump\t// in\n    tag_337:\n        /* \"#utility.yul\":17774:17807   */\n      swap2\n      pop\n        /* \"#utility.yul\":17829:17895   */\n      0xffffffffffffffffffffffffffffffffffffffffffffffffffffffffffffffff\n        /* \"#utility.yul\":17822:17827   */\n      dup3\n        /* \"#utility.yul\":17819:17896   */\n      sub\n        /* \"#utility.yul\":17816:17919   */\n      tag_338\n      jumpi\n        /* \"#utility.yul\":17899:17917   */\n      tag_339\n      tag_152\n      jump\t// in\n    tag_339:\n        /* \"#utility.yul\":17816:17919   */\n    tag_338:\n        /* \"#utility.yul\":17946:17947   */\n      0x01\n        /* \"#utility.yul\":17939:17944   */\n      dup3\n        /* \"#utility.yul\":17935:17948   */\n      add\n        /* \"#utility.yul\":17928:17948   */\n      swap1\n      pop\n        /* \"#utility.yul\":17721:17954   */\n      swap2\n      swap1\n      pop\n      jump\t// out\n        /* \"#utility.yul\":17960:18128   */\n    tag_153:\n        /* \"#utility.yul\":18100:18120   */\n      0x50726f706f73616c20697320636c6f7365640000000000000000000000000000\n        /* \"#utility.yul\":18096:18097   */\n      0x00\n        /* \"#utility.yul\":18088:18094   */\n      dup3\n        /* \"#utility.yul\":18084:18098   */\n      add\n        /* \"#utility.yul\":18077:18121   */\n      mstore\n        /* \"#utility.yul\":17960:18128   */\n      pop\n      jump\t// out\n        /* \"#utility.yul\":18134:18500   */\n    tag_154:\n        /* \"#utility.yul\":18276:18279   */\n      0x00\n        /* \"#utility.yul\":18297:18364   */\n      tag_342\n        /* \"#utility.yul\":18361:18363   */\n      0x12\n        /* \"#utility.yul\":18356:18359   */\n      dup4\n        /* \"#utility.yul\":18297:18364   */\n      tag_106\n      jump\t// in\n    tag_342:\n        /* \"#utility.yul\":18290:18364   */\n      swap2\n      pop\n        /* \"#utility.yul\":18373:18466   */\n      tag_343\n        /* \"#utility.yul\":18462:18465   */\n      dup3\n        /* \"#utility.yul\":18373:18466   */\n      tag_153\n      jump\t// in\n    tag_343:\n        /* \"#utility.yul\":18491:18493   */\n      0x20\n        /* \"#utility.yul\":18486:18489   */\n      dup3\n        /* \"#utility.yul\":18482:18494   */\n      add\n        /* \"#utility.yul\":18475:18494   */\n      swap1\n      pop\n        /* \"#utility.yul\":18134:18500   */\n      swap2\n      swap1\n      pop\n      jump\t// out\n        /* \"#utility.yul\":18506:18925   */\n    tag_94:\n        /* \"#utility.yul\":18672:18676   */\n      0x00\n        /* \"#utility.yul\":18710:18712   */\n      0x20\n        /* \"#utility.yul\":18699:18708   */\n      dup3\n        /* \"#utility.yul\":18695:18713   */\n      add\n        /* \"#utility.yul\":18687:18713   */\n      swap1\n      pop\n        /* \"#utility.yul\":18759:18768   */\n      dup2\n        /* \"#utility.yul\":18753:18757   */\n      dup2\n        /* \"#utility.yul\":18749:18769   */\n      sub\n        /* \"#utility.yul\":18745:18746   */\n      0x00\n        /* \"#utility.yul\":18734:18743   */\n      dup4\n        /* \"#utility.yul\":18730:18747   */\n      add\n        /* \"#utility.yul\":18723:18770   */\n      mstore\n        /* \"#utility.yul\":18787:18918   */\n      tag_345\n        /* \"#utility.yul\":18913:18917   */\n      dup2\n        /* \"#utility.yul\":18787:18918   */\n      tag_154\n      jump\t// in\n    tag_345:\n        /* \"#utility.yul\":18779:18918   */\n      swap1\n      pop\n        /* \"#utility.yul\":18506:18925   */\n      swap2\n      swap1\n      pop\n      jump\t// out\n        /* \"#utility.yul\":18931:19158   */\n    tag_155:\n        /* \"#utility.yul\":19071:19105   */\n      0x596f75206861766520616c726561647920766f74656420666f72207468697320\n        /* \"#utility.yul\":19067:19068   */\n      0x00\n        /* \"#utility.yul\":19059:19065   */\n      dup3\n        /* \"#utility.yul\":19055:19069   */\n      add\n        /* \"#utility.yul\":19048:19106   */\n      mstore\n        /* \"#utility.yul\":19140:19150   */\n      0x70726f706f73616c000000000000000000000000000000000000000000000000\n        /* \"#utility.yul\":19135:19137   */\n      0x20\n        /* \"#utility.yul\":19127:19133   */\n      dup3\n        /* \"#utility.yul\":19123:19138   */\n      add\n        /* \"#utility.yul\":19116:19151   */\n      mstore\n        /* \"#utility.yul\":18931:19158   */\n      pop\n      jump\t// out\n        /* \"#utility.yul\":19164:19530   */\n    tag_156:\n        /* \"#utility.yul\":19306:19309   */\n      0x00\n        /* \"#utility.yul\":19327:19394   */\n      tag_348\n        /* \"#utility.yul\":19391:19393   */\n      0x28\n        /* \"#utility.yul\":19386:19389   */\n      dup4\n        /* \"#utility.yul\":19327:19394   */\n      tag_106\n      jump\t// in\n    tag_348:\n        /* \"#utility.yul\":19320:19394   */\n      swap2\n      pop\n        /* \"#utility.yul\":19403:19496   */\n      tag_349\n        /* \"#utility.yul\":19492:19495   */\n      dup3\n        /* \"#utility.yul\":19403:19496   */\n      tag_155\n      jump\t// in\n    tag_349:\n        /* \"#utility.yul\":19521:19523   */\n      0x40\n        /* \"#utility.yul\":19516:19519   */\n      dup3\n        /* \"#utility.yul\":19512:19524   */\n      add\n        /* \"#utility.yul\":19505:19524   */\n      swap1\n      pop\n        /* \"#utility.yul\":19164:19530   */\n      swap2\n      swap1\n      pop\n      jump\t// out\n        /* \"#utility.yul\":19536:19955   */\n    tag_97:\n        /* \"#utility.yul\":19702:19706   */\n      0x00\n        /* \"#utility.yul\":19740:19742   */\n      0x20\n        /* \"#utility.yul\":19729:19738   */\n      dup3\n        /* \"#utility.yul\":19725:19743   */\n      add\n        /* \"#utility.yul\":19717:19743   */\n      swap1\n      pop\n        /* \"#utility.yul\":19789:19798   */\n      dup2\n        /* \"#utility.yul\":19783:19787   */\n      dup2\n        /* \"#utility.yul\":19779:19799   */\n      sub\n        /* \"#utility.yul\":19775:19776   */\n      0x00\n        /* \"#utility.yul\":19764:19773   */\n      dup4\n        /* \"#utility.yul\":19760:19777   */\n      add\n        /* \"#utility.yul\":19753:19800   */\n      mstore\n        /* \"#utility.yul\":19817:19948   */\n      tag_351\n        /* \"#utility.yul\":19943:19947   */\n      dup2\n        /* \"#utility.yul\":19817:19948   */\n      tag_156\n      jump\t// in\n    tag_351:\n        /* \"#utility.yul\":19809:19948   */\n      swap1\n      pop\n        /* \"#utility.yul\":19536:19955   */\n      swap2\n      swap1\n      pop\n      jump\t// out\n\n    auxdata: 0xa26469706673582212200457143ca17c0e4d7e7db000a9a998b79084f616c2d8cc8f29a0ff237720415e64736f6c63430008120033\n}\n",
				"bytecode": {
					"linkReferences": {},
					"object": "608060405234801561001057600080fd5b5060016000803373ffffffffffffffffffffffffffffffffffffffff1673ffffffffffffffffffffffffffffffffffffffff16815260200190815260200160002060010160006101000a81548160ff0219169083151502179055506114448061007a6000396000f3fe608060405234801561001057600080fd5b50600436106100625760003560e01c8063013cf08b1461006757806365e481e214610099578063704b6c02146100b5578063a3ec138d146100d1578063e7613ea814610102578063f8f1212a1461011e575b600080fd5b610081600480360381019061007c91906109a3565b61013a565b60405161009093929190610a7b565b60405180910390f35b6100b360048036038101906100ae9190610bf5565b610291565b005b6100cf60048036038101906100ca9190610ccb565b610388565b005b6100eb60048036038101906100e69190610ccb565b610473565b6040516100f9929190610d07565b60405180910390f35b61011c60048036038101906101179190610d30565b6104a4565b005b61013860048036038101906101339190610d30565b6106f5565b005b6001818154811061014a57600080fd5b906000526020600020906005020160009150905080600001805461016d90610d9f565b80601f016020809104026020016040519081016040528092919081815260200182805461019990610d9f565b80156101e65780601f106101bb576101008083540402835291602001916101e6565b820191906000526020600020905b8154815290600101906020018083116101c957829003601f168201915b5050505050908060010180546101fb90610d9f565b80601f016020809104026020016040519081016040528092919081815260200182805461022790610d9f565b80156102745780601f1061024957610100808354040283529160200191610274565b820191906000526020600020905b81548152906001019060200180831161025757829003601f168201915b5050505050908060020160009054906101000a900460ff16905083565b6000803373ffffffffffffffffffffffffffffffffffffffff1673ffffffffffffffffffffffffffffffffffffffff16815260200190815260200160002060010160009054906101000a900460ff1661031f576040517f08c379a000000000000000000000000000000000000000000000000000000000815260040161031690610e1c565b60405180910390fd5b6000600180816001815401808255809150500390600052602060002090600502019050828160000190816103539190610fe8565b50818160010190816103659190610fe8565b5060018160020160006101000a81548160ff021916908315150217905550505050565b6000803373ffffffffffffffffffffffffffffffffffffffff1673ffffffffffffffffffffffffffffffffffffffff16815260200190815260200160002060010160009054906101000a900460ff16610416576040517f08c379a000000000000000000000000000000000000000000000000000000000815260040161040d90611106565b60405180910390fd5b60016000808373ffffffffffffffffffffffffffffffffffffffff1673ffffffffffffffffffffffffffffffffffffffff16815260200190815260200160002060010160006101000a81548160ff02191690831515021790555050565b60006020528060005260406000206000915090508060000154908060010160009054906101000a900460ff16905082565b6000803373ffffffffffffffffffffffffffffffffffffffff1673ffffffffffffffffffffffffffffffffffffffff16815260200190815260200160002060010160009054906101000a900460ff16610532576040517f08c379a000000000000000000000000000000000000000000000000000000000815260040161052990611172565b60405180910390fd5b60008210158015610547575060018054905082105b610586576040517f08c379a000000000000000000000000000000000000000000000000000000000815260040161057d906111de565b60405180910390fd5b60006001838154811061059c5761059b6111fe565b5b906000526020600020906005020190508060020160009054906101000a900460ff166105fd576040517f08c379a00000000000000000000000000000000000000000000000000000000081526004016105f490611279565b60405180910390fd5b60008160020160006101000a81548160ff02191690831515021790555060005b81600301805490508110156106ef576000826003018281548110610644576106436111fe565b5b90600052602060002090600202019050838160010154036106db576000808260000160009054906101000a900473ffffffffffffffffffffffffffffffffffffffff1673ffffffffffffffffffffffffffffffffffffffff1673ffffffffffffffffffffffffffffffffffffffff16815260200190815260200160002060000160008154809291906106d5906112c8565b91905055505b5080806106e7906112c8565b91505061061d565b50505050565b6000821015801561070a575060018054905082105b610749576040517f08c379a0000000000000000000000000000000000000000000000000000000008152600401610740906111de565b60405180910390fd5b60006001838154811061075f5761075e6111fe565b5b906000526020600020906005020190508060020160009054906101000a900460ff166107c0576040517f08c379a00000000000000000000000000000000000000000000000000000000081526004016107b79061135c565b60405180910390fd5b8060040160003373ffffffffffffffffffffffffffffffffffffffff1673ffffffffffffffffffffffffffffffffffffffff16815260200190815260200160002060009054906101000a900460ff161561084f576040517f08c379a0000000000000000000000000000000000000000000000000000000008152600401610846906113ee565b60405180910390fd5b8060030160405180604001604052803373ffffffffffffffffffffffffffffffffffffffff16815260200184815250908060018154018082558091505060019003906000526020600020906002020160009091909190915060008201518160000160006101000a81548173ffffffffffffffffffffffffffffffffffffffff021916908373ffffffffffffffffffffffffffffffffffffffff16021790555060208201518160010155505060018160040160003373ffffffffffffffffffffffffffffffffffffffff1673ffffffffffffffffffffffffffffffffffffffff16815260200190815260200160002060006101000a81548160ff021916908315150217905550505050565b6000604051905090565b600080fd5b600080fd5b6000819050919050565b6109808161096d565b811461098b57600080fd5b50565b60008135905061099d81610977565b92915050565b6000602082840312156109b9576109b8610963565b5b60006109c78482850161098e565b91505092915050565b600081519050919050565b600082825260208201905092915050565b60005b83811015610a0a5780820151818401526020810190506109ef565b60008484015250505050565b6000601f19601f8301169050919050565b6000610a32826109d0565b610a3c81856109db565b9350610a4c8185602086016109ec565b610a5581610a16565b840191505092915050565b60008115159050919050565b610a7581610a60565b82525050565b60006060820190508181036000830152610a958186610a27565b90508181036020830152610aa98185610a27565b9050610ab86040830184610a6c565b949350505050565b600080fd5b600080fd5b7f4e487b7100000000000000000000000000000000000000000000000000000000600052604160045260246000fd5b610b0282610a16565b810181811067ffffffffffffffff82111715610b2157610b20610aca565b5b80604052505050565b6000610b34610959565b9050610b408282610af9565b919050565b600067ffffffffffffffff821115610b6057610b5f610aca565b5b610b6982610a16565b9050602081019050919050565b82818337600083830152505050565b6000610b98610b9384610b45565b610b2a565b905082815260208101848484011115610bb457610bb3610ac5565b5b610bbf848285610b76565b509392505050565b600082601f830112610bdc57610bdb610ac0565b5b8135610bec848260208601610b85565b91505092915050565b60008060408385031215610c0c57610c0b610963565b5b600083013567ffffffffffffffff811115610c2a57610c29610968565b5b610c3685828601610bc7565b925050602083013567ffffffffffffffff811115610c5757610c56610968565b5b610c6385828601610bc7565b9150509250929050565b600073ffffffffffffffffffffffffffffffffffffffff82169050919050565b6000610c9882610c6d565b9050919050565b610ca881610c8d565b8114610cb357600080fd5b50565b600081359050610cc581610c9f565b92915050565b600060208284031215610ce157610ce0610963565b5b6000610cef84828501610cb6565b91505092915050565b610d018161096d565b82525050565b6000604082019050610d1c6000830185610cf8565b610d296020830184610a6c565b9392505050565b60008060408385031215610d4757610d46610963565b5b6000610d558582860161098e565b9250506020610d668582860161098e565b9150509250929050565b7f4e487b7100000000000000000000000000000000000000000000000000000000600052602260045260246000fd5b60006002820490506001821680610db757607f821691505b602082108103610dca57610dc9610d70565b5b50919050565b7f4f6e6c792061646d696e2063616e206372656174652070726f706f73616c0000600082015250565b6000610e06601e836109db565b9150610e1182610dd0565b602082019050919050565b60006020820190508181036000830152610e3581610df9565b9050919050565b60008190508160005260206000209050919050565b60006020601f8301049050919050565b600082821b905092915050565b600060088302610e9e7fffffffffffffffffffffffffffffffffffffffffffffffffffffffffffffffff82610e61565b610ea88683610e61565b95508019841693508086168417925050509392505050565b6000819050919050565b6000610ee5610ee0610edb8461096d565b610ec0565b61096d565b9050919050565b6000819050919050565b610eff83610eca565b610f13610f0b82610eec565b848454610e6e565b825550505050565b600090565b610f28610f1b565b610f33818484610ef6565b505050565b5b81811015610f5757610f4c600082610f20565b600181019050610f39565b5050565b601f821115610f9c57610f6d81610e3c565b610f7684610e51565b81016020851015610f85578190505b610f99610f9185610e51565b830182610f38565b50505b505050565b600082821c905092915050565b6000610fbf60001984600802610fa1565b1980831691505092915050565b6000610fd88383610fae565b9150826002028217905092915050565b610ff1826109d0565b67ffffffffffffffff81111561100a57611009610aca565b5b6110148254610d9f565b61101f828285610f5b565b600060209050601f8311600181146110525760008415611040578287015190505b61104a8582610fcc565b8655506110b2565b601f19841661106086610e3c565b60005b8281101561108857848901518255600182019150602085019450602081019050611063565b868310156110a557848901516110a1601f891682610fae565b8355505b6001600288020188555050505b505050505050565b7f4f6e6c792061646d696e2063616e207365742061646d696e0000000000000000600082015250565b60006110f06018836109db565b91506110fb826110ba565b602082019050919050565b6000602082019050818103600083015261111f816110e3565b9050919050565b7f4f6e6c792061646d696e2063616e20636c6f73652070726f706f73616c000000600082015250565b600061115c601d836109db565b915061116782611126565b602082019050919050565b6000602082019050818103600083015261118b8161114f565b9050919050565b7f496e76616c69642070726f706f73616c20696e64657800000000000000000000600082015250565b60006111c86016836109db565b91506111d382611192565b602082019050919050565b600060208201905081810360008301526111f7816111bb565b9050919050565b7f4e487b7100000000000000000000000000000000000000000000000000000000600052603260045260246000fd5b7f50726f706f73616c20697320616c726561647920636c6f736564000000000000600082015250565b6000611263601a836109db565b915061126e8261122d565b602082019050919050565b6000602082019050818103600083015261129281611256565b9050919050565b7f4e487b7100000000000000000000000000000000000000000000000000000000600052601160045260246000fd5b60006112d38261096d565b91507fffffffffffffffffffffffffffffffffffffffffffffffffffffffffffffffff820361130557611304611299565b5b600182019050919050565b7f50726f706f73616c20697320636c6f7365640000000000000000000000000000600082015250565b60006113466012836109db565b915061135182611310565b602082019050919050565b6000602082019050818103600083015261137581611339565b9050919050565b7f596f75206861766520616c726561647920766f74656420666f7220746869732060008201527f70726f706f73616c000000000000000000000000000000000000000000000000602082015250565b60006113d86028836109db565b91506113e38261137c565b604082019050919050565b60006020820190508181036000830152611407816113cb565b905091905056fea26469706673582212200457143ca17c0e4d7e7db000a9a998b79084f616c2d8cc8f29a0ff237720415e64736f6c63430008120033",
					"opcodes": "PUSH1 0x80 PUSH1 0x40 MSTORE CALLVALUE DUP1 ISZERO PUSH2 0x10 JUMPI PUSH1 0x0 DUP1 REVERT JUMPDEST POP PUSH1 0x1 PUSH1 0x0 DUP1 CALLER PUSH20 0xFFFFFFFFFFFFFFFFFFFFFFFFFFFFFFFFFFFFFFFF AND PUSH20 0xFFFFFFFFFFFFFFFFFFFFFFFFFFFFFFFFFFFFFFFF AND DUP2 MSTORE PUSH1 0x20 ADD SWAP1 DUP2 MSTORE PUSH1 0x20 ADD PUSH1 0x0 KECCAK256 PUSH1 0x1 ADD PUSH1 0x0 PUSH2 0x100 EXP DUP2 SLOAD DUP2 PUSH1 0xFF MUL NOT AND SWAP1 DUP4 ISZERO ISZERO MUL OR SWAP1 SSTORE POP PUSH2 0x1444 DUP1 PUSH2 0x7A PUSH1 0x0 CODECOPY PUSH1 0x0 RETURN INVALID PUSH1 0x80 PUSH1 0x40 MSTORE CALLVALUE DUP1 ISZERO PUSH2 0x10 JUMPI PUSH1 0x0 DUP1 REVERT JUMPDEST POP PUSH1 0x4 CALLDATASIZE LT PUSH2 0x62 JUMPI PUSH1 0x0 CALLDATALOAD PUSH1 0xE0 SHR DUP1 PUSH4 0x13CF08B EQ PUSH2 0x67 JUMPI DUP1 PUSH4 0x65E481E2 EQ PUSH2 0x99 JUMPI DUP1 PUSH4 0x704B6C02 EQ PUSH2 0xB5 JUMPI DUP1 PUSH4 0xA3EC138D EQ PUSH2 0xD1 JUMPI DUP1 PUSH4 0xE7613EA8 EQ PUSH2 0x102 JUMPI DUP1 PUSH4 0xF8F1212A EQ PUSH2 0x11E JUMPI JUMPDEST PUSH1 0x0 DUP1 REVERT JUMPDEST PUSH2 0x81 PUSH1 0x4 DUP1 CALLDATASIZE SUB DUP2 ADD SWAP1 PUSH2 0x7C SWAP2 SWAP1 PUSH2 0x9A3 JUMP JUMPDEST PUSH2 0x13A JUMP JUMPDEST PUSH1 0x40 MLOAD PUSH2 0x90 SWAP4 SWAP3 SWAP2 SWAP1 PUSH2 0xA7B JUMP JUMPDEST PUSH1 0x40 MLOAD DUP1 SWAP2 SUB SWAP1 RETURN JUMPDEST PUSH2 0xB3 PUSH1 0x4 DUP1 CALLDATASIZE SUB DUP2 ADD SWAP1 PUSH2 0xAE SWAP2 SWAP1 PUSH2 0xBF5 JUMP JUMPDEST PUSH2 0x291 JUMP JUMPDEST STOP JUMPDEST PUSH2 0xCF PUSH1 0x4 DUP1 CALLDATASIZE SUB DUP2 ADD SWAP1 PUSH2 0xCA SWAP2 SWAP1 PUSH2 0xCCB JUMP JUMPDEST PUSH2 0x388 JUMP JUMPDEST STOP JUMPDEST PUSH2 0xEB PUSH1 0x4 DUP1 CALLDATASIZE SUB DUP2 ADD SWAP1 PUSH2 0xE6 SWAP2 SWAP1 PUSH2 0xCCB JUMP JUMPDEST PUSH2 0x473 JUMP JUMPDEST PUSH1 0x40 MLOAD PUSH2 0xF9 SWAP3 SWAP2 SWAP1 PUSH2 0xD07 JUMP JUMPDEST PUSH1 0x40 MLOAD DUP1 SWAP2 SUB SWAP1 RETURN JUMPDEST PUSH2 0x11C PUSH1 0x4 DUP1 CALLDATASIZE SUB DUP2 ADD SWAP1 PUSH2 0x117 SWAP2 SWAP1 PUSH2 0xD30 JUMP JUMPDEST PUSH2 0x4A4 JUMP JUMPDEST STOP JUMPDEST PUSH2 0x138 PUSH1 0x4 DUP1 CALLDATASIZE SUB DUP2 ADD SWAP1 PUSH2 0x133 SWAP2 SWAP1 PUSH2 0xD30 JUMP JUMPDEST PUSH2 0x6F5 JUMP JUMPDEST STOP JUMPDEST PUSH1 0x1 DUP2 DUP2 SLOAD DUP2 LT PUSH2 0x14A JUMPI PUSH1 0x0 DUP1 REVERT JUMPDEST SWAP1 PUSH1 0x0 MSTORE PUSH1 0x20 PUSH1 0x0 KECCAK256 SWAP1 PUSH1 0x5 MUL ADD PUSH1 0x0 SWAP2 POP SWAP1 POP DUP1 PUSH1 0x0 ADD DUP1 SLOAD PUSH2 0x16D SWAP1 PUSH2 0xD9F JUMP JUMPDEST DUP1 PUSH1 0x1F ADD PUSH1 0x20 DUP1 SWAP2 DIV MUL PUSH1 0x20 ADD PUSH1 0x40 MLOAD SWAP1 DUP2 ADD PUSH1 0x40 MSTORE DUP1 SWAP3 SWAP2 SWAP1 DUP2 DUP2 MSTORE PUSH1 0x20 ADD DUP3 DUP1 SLOAD PUSH2 0x199 SWAP1 PUSH2 0xD9F JUMP JUMPDEST DUP1 ISZERO PUSH2 0x1E6 JUMPI DUP1 PUSH1 0x1F LT PUSH2 0x1BB JUMPI PUSH2 0x100 DUP1 DUP4 SLOAD DIV MUL DUP4 MSTORE SWAP2 PUSH1 0x20 ADD SWAP2 PUSH2 0x1E6 JUMP JUMPDEST DUP3 ADD SWAP2 SWAP1 PUSH1 0x0 MSTORE PUSH1 0x20 PUSH1 0x0 KECCAK256 SWAP1 JUMPDEST DUP2 SLOAD DUP2 MSTORE SWAP1 PUSH1 0x1 ADD SWAP1 PUSH1 0x20 ADD DUP1 DUP4 GT PUSH2 0x1C9 JUMPI DUP3 SWAP1 SUB PUSH1 0x1F AND DUP3 ADD SWAP2 JUMPDEST POP POP POP POP POP SWAP1 DUP1 PUSH1 0x1 ADD DUP1 SLOAD PUSH2 0x1FB SWAP1 PUSH2 0xD9F JUMP JUMPDEST DUP1 PUSH1 0x1F ADD PUSH1 0x20 DUP1 SWAP2 DIV MUL PUSH1 0x20 ADD PUSH1 0x40 MLOAD SWAP1 DUP2 ADD PUSH1 0x40 MSTORE DUP1 SWAP3 SWAP2 SWAP1 DUP2 DUP2 MSTORE PUSH1 0x20 ADD DUP3 DUP1 SLOAD PUSH2 0x227 SWAP1 PUSH2 0xD9F JUMP JUMPDEST DUP1 ISZERO PUSH2 0x274 JUMPI DUP1 PUSH1 0x1F LT PUSH2 0x249 JUMPI PUSH2 0x100 DUP1 DUP4 SLOAD DIV MUL DUP4 MSTORE SWAP2 PUSH1 0x20 ADD SWAP2 PUSH2 0x274 JUMP JUMPDEST DUP3 ADD SWAP2 SWAP1 PUSH1 0x0 MSTORE PUSH1 0x20 PUSH1 0x0 KECCAK256 SWAP1 JUMPDEST DUP2 SLOAD DUP2 MSTORE SWAP1 PUSH1 0x1 ADD SWAP1 PUSH1 0x20 ADD DUP1 DUP4 GT PUSH2 0x257 JUMPI DUP3 SWAP1 SUB PUSH1 0x1F AND DUP3 ADD SWAP2 JUMPDEST POP POP POP POP POP SWAP1 DUP1 PUSH1 0x2 ADD PUSH1 0x0 SWAP1 SLOAD SWAP1 PUSH2 0x100 EXP SWAP1 DIV PUSH1 0xFF AND SWAP1 POP DUP4 JUMP JUMPDEST PUSH1 0x0 DUP1 CALLER PUSH20 0xFFFFFFFFFFFFFFFFFFFFFFFFFFFFFFFFFFFFFFFF AND PUSH20 0xFFFFFFFFFFFFFFFFFFFFFFFFFFFFFFFFFFFFFFFF AND DUP2 MSTORE PUSH1 0x20 ADD SWAP1 DUP2 MSTORE PUSH1 0x20 ADD PUSH1 0x0 KECCAK256 PUSH1 0x1 ADD PUSH1 0x0 SWAP1 SLOAD SWAP1 PUSH2 0x100 EXP SWAP1 DIV PUSH1 0xFF AND PUSH2 0x31F JUMPI PUSH1 0x40 MLOAD PUSH32 0x8C379A000000000000000000000000000000000000000000000000000000000 DUP2 MSTORE PUSH1 0x4 ADD PUSH2 0x316 SWAP1 PUSH2 0xE1C JUMP JUMPDEST PUSH1 0x40 MLOAD DUP1 SWAP2 SUB SWAP1 REVERT JUMPDEST PUSH1 0x0 PUSH1 0x1 DUP1 DUP2 PUSH1 0x1 DUP2 SLOAD ADD DUP1 DUP3 SSTORE DUP1 SWAP2 POP POP SUB SWAP1 PUSH1 0x0 MSTORE PUSH1 0x20 PUSH1 0x0 KECCAK256 SWAP1 PUSH1 0x5 MUL ADD SWAP1 POP DUP3 DUP2 PUSH1 0x0 ADD SWAP1 DUP2 PUSH2 0x353 SWAP2 SWAP1 PUSH2 0xFE8 JUMP JUMPDEST POP DUP2 DUP2 PUSH1 0x1 ADD SWAP1 DUP2 PUSH2 0x365 SWAP2 SWAP1 PUSH2 0xFE8 JUMP JUMPDEST POP PUSH1 0x1 DUP2 PUSH1 0x2 ADD PUSH1 0x0 PUSH2 0x100 EXP DUP2 SLOAD DUP2 PUSH1 0xFF MUL NOT AND SWAP1 DUP4 ISZERO ISZERO MUL OR SWAP1 SSTORE POP POP POP POP JUMP JUMPDEST PUSH1 0x0 DUP1 CALLER PUSH20 0xFFFFFFFFFFFFFFFFFFFFFFFFFFFFFFFFFFFFFFFF AND PUSH20 0xFFFFFFFFFFFFFFFFFFFFFFFFFFFFFFFFFFFFFFFF AND DUP2 MSTORE PUSH1 0x20 ADD SWAP1 DUP2 MSTORE PUSH1 0x20 ADD PUSH1 0x0 KECCAK256 PUSH1 0x1 ADD PUSH1 0x0 SWAP1 SLOAD SWAP1 PUSH2 0x100 EXP SWAP1 DIV PUSH1 0xFF AND PUSH2 0x416 JUMPI PUSH1 0x40 MLOAD PUSH32 0x8C379A000000000000000000000000000000000000000000000000000000000 DUP2 MSTORE PUSH1 0x4 ADD PUSH2 0x40D SWAP1 PUSH2 0x1106 JUMP JUMPDEST PUSH1 0x40 MLOAD DUP1 SWAP2 SUB SWAP1 REVERT JUMPDEST PUSH1 0x1 PUSH1 0x0 DUP1 DUP4 PUSH20 0xFFFFFFFFFFFFFFFFFFFFFFFFFFFFFFFFFFFFFFFF AND PUSH20 0xFFFFFFFFFFFFFFFFFFFFFFFFFFFFFFFFFFFFFFFF AND DUP2 MSTORE PUSH1 0x20 ADD SWAP1 DUP2 MSTORE PUSH1 0x20 ADD PUSH1 0x0 KECCAK256 PUSH1 0x1 ADD PUSH1 0x0 PUSH2 0x100 EXP DUP2 SLOAD DUP2 PUSH1 0xFF MUL NOT AND SWAP1 DUP4 ISZERO ISZERO MUL OR SWAP1 SSTORE POP POP JUMP JUMPDEST PUSH1 0x0 PUSH1 0x20 MSTORE DUP1 PUSH1 0x0 MSTORE PUSH1 0x40 PUSH1 0x0 KECCAK256 PUSH1 0x0 SWAP2 POP SWAP1 POP DUP1 PUSH1 0x0 ADD SLOAD SWAP1 DUP1 PUSH1 0x1 ADD PUSH1 0x0 SWAP1 SLOAD SWAP1 PUSH2 0x100 EXP SWAP1 DIV PUSH1 0xFF AND SWAP1 POP DUP3 JUMP JUMPDEST PUSH1 0x0 DUP1 CALLER PUSH20 0xFFFFFFFFFFFFFFFFFFFFFFFFFFFFFFFFFFFFFFFF AND PUSH20 0xFFFFFFFFFFFFFFFFFFFFFFFFFFFFFFFFFFFFFFFF AND DUP2 MSTORE PUSH1 0x20 ADD SWAP1 DUP2 MSTORE PUSH1 0x20 ADD PUSH1 0x0 KECCAK256 PUSH1 0x1 ADD PUSH1 0x0 SWAP1 SLOAD SWAP1 PUSH2 0x100 EXP SWAP1 DIV PUSH1 0xFF AND PUSH2 0x532 JUMPI PUSH1 0x40 MLOAD PUSH32 0x8C379A000000000000000000000000000000000000000000000000000000000 DUP2 MSTORE PUSH1 0x4 ADD PUSH2 0x529 SWAP1 PUSH2 0x1172 JUMP JUMPDEST PUSH1 0x40 MLOAD DUP1 SWAP2 SUB SWAP1 REVERT JUMPDEST PUSH1 0x0 DUP3 LT ISZERO DUP1 ISZERO PUSH2 0x547 JUMPI POP PUSH1 0x1 DUP1 SLOAD SWAP1 POP DUP3 LT JUMPDEST PUSH2 0x586 JUMPI PUSH1 0x40 MLOAD PUSH32 0x8C379A000000000000000000000000000000000000000000000000000000000 DUP2 MSTORE PUSH1 0x4 ADD PUSH2 0x57D SWAP1 PUSH2 0x11DE JUMP JUMPDEST PUSH1 0x40 MLOAD DUP1 SWAP2 SUB SWAP1 REVERT JUMPDEST PUSH1 0x0 PUSH1 0x1 DUP4 DUP2 SLOAD DUP2 LT PUSH2 0x59C JUMPI PUSH2 0x59B PUSH2 0x11FE JUMP JUMPDEST JUMPDEST SWAP1 PUSH1 0x0 MSTORE PUSH1 0x20 PUSH1 0x0 KECCAK256 SWAP1 PUSH1 0x5 MUL ADD SWAP1 POP DUP1 PUSH1 0x2 ADD PUSH1 0x0 SWAP1 SLOAD SWAP1 PUSH2 0x100 EXP SWAP1 DIV PUSH1 0xFF AND PUSH2 0x5FD JUMPI PUSH1 0x40 MLOAD PUSH32 0x8C379A000000000000000000000000000000000000000000000000000000000 DUP2 MSTORE PUSH1 0x4 ADD PUSH2 0x5F4 SWAP1 PUSH2 0x1279 JUMP JUMPDEST PUSH1 0x40 MLOAD DUP1 SWAP2 SUB SWAP1 REVERT JUMPDEST PUSH1 0x0 DUP2 PUSH1 0x2 ADD PUSH1 0x0 PUSH2 0x100 EXP DUP2 SLOAD DUP2 PUSH1 0xFF MUL NOT AND SWAP1 DUP4 ISZERO ISZERO MUL OR SWAP1 SSTORE POP PUSH1 0x0 JUMPDEST DUP2 PUSH1 0x3 ADD DUP1 SLOAD SWAP1 POP DUP2 LT ISZERO PUSH2 0x6EF JUMPI PUSH1 0x0 DUP3 PUSH1 0x3 ADD DUP3 DUP2 SLOAD DUP2 LT PUSH2 0x644 JUMPI PUSH2 0x643 PUSH2 0x11FE JUMP JUMPDEST JUMPDEST SWAP1 PUSH1 0x0 MSTORE PUSH1 0x20 PUSH1 0x0 KECCAK256 SWAP1 PUSH1 0x2 MUL ADD SWAP1 POP DUP4 DUP2 PUSH1 0x1 ADD SLOAD SUB PUSH2 0x6DB JUMPI PUSH1 0x0 DUP1 DUP3 PUSH1 0x0 ADD PUSH1 0x0 SWAP1 SLOAD SWAP1 PUSH2 0x100 EXP SWAP1 DIV PUSH20 0xFFFFFFFFFFFFFFFFFFFFFFFFFFFFFFFFFFFFFFFF AND PUSH20 0xFFFFFFFFFFFFFFFFFFFFFFFFFFFFFFFFFFFFFFFF AND PUSH20 0xFFFFFFFFFFFFFFFFFFFFFFFFFFFFFFFFFFFFFFFF AND DUP2 MSTORE PUSH1 0x20 ADD SWAP1 DUP2 MSTORE PUSH1 0x20 ADD PUSH1 0x0 KECCAK256 PUSH1 0x0 ADD PUSH1 0x0 DUP2 SLOAD DUP1 SWAP3 SWAP2 SWAP1 PUSH2 0x6D5 SWAP1 PUSH2 0x12C8 JUMP JUMPDEST SWAP2 SWAP1 POP SSTORE POP JUMPDEST POP DUP1 DUP1 PUSH2 0x6E7 SWAP1 PUSH2 0x12C8 JUMP JUMPDEST SWAP2 POP POP PUSH2 0x61D JUMP JUMPDEST POP POP POP POP JUMP JUMPDEST PUSH1 0x0 DUP3 LT ISZERO DUP1 ISZERO PUSH2 0x70A JUMPI POP PUSH1 0x1 DUP1 SLOAD SWAP1 POP DUP3 LT JUMPDEST PUSH2 0x749 JUMPI PUSH1 0x40 MLOAD PUSH32 0x8C379A000000000000000000000000000000000000000000000000000000000 DUP2 MSTORE PUSH1 0x4 ADD PUSH2 0x740 SWAP1 PUSH2 0x11DE JUMP JUMPDEST PUSH1 0x40 MLOAD DUP1 SWAP2 SUB SWAP1 REVERT JUMPDEST PUSH1 0x0 PUSH1 0x1 DUP4 DUP2 SLOAD DUP2 LT PUSH2 0x75F JUMPI PUSH2 0x75E PUSH2 0x11FE JUMP JUMPDEST JUMPDEST SWAP1 PUSH1 0x0 MSTORE PUSH1 0x20 PUSH1 0x0 KECCAK256 SWAP1 PUSH1 0x5 MUL ADD SWAP1 POP DUP1 PUSH1 0x2 ADD PUSH1 0x0 SWAP1 SLOAD SWAP1 PUSH2 0x100 EXP SWAP1 DIV PUSH1 0xFF AND PUSH2 0x7C0 JUMPI PUSH1 0x40 MLOAD PUSH32 0x8C379A000000000000000000000000000000000000000000000000000000000 DUP2 MSTORE PUSH1 0x4 ADD PUSH2 0x7B7 SWAP1 PUSH2 0x135C JUMP JUMPDEST PUSH1 0x40 MLOAD DUP1 SWAP2 SUB SWAP1 REVERT JUMPDEST DUP1 PUSH1 0x4 ADD PUSH1 0x0 CALLER PUSH20 0xFFFFFFFFFFFFFFFFFFFFFFFFFFFFFFFFFFFFFFFF AND PUSH20 0xFFFFFFFFFFFFFFFFFFFFFFFFFFFFFFFFFFFFFFFF AND DUP2 MSTORE PUSH1 0x20 ADD SWAP1 DUP2 MSTORE PUSH1 0x20 ADD PUSH1 0x0 KECCAK256 PUSH1 0x0 SWAP1 SLOAD SWAP1 PUSH2 0x100 EXP SWAP1 DIV PUSH1 0xFF AND ISZERO PUSH2 0x84F JUMPI PUSH1 0x40 MLOAD PUSH32 0x8C379A000000000000000000000000000000000000000000000000000000000 DUP2 MSTORE PUSH1 0x4 ADD PUSH2 0x846 SWAP1 PUSH2 0x13EE JUMP JUMPDEST PUSH1 0x40 MLOAD DUP1 SWAP2 SUB SWAP1 REVERT JUMPDEST DUP1 PUSH1 0x3 ADD PUSH1 0x40 MLOAD DUP1 PUSH1 0x40 ADD PUSH1 0x40 MSTORE DUP1 CALLER PUSH20 0xFFFFFFFFFFFFFFFFFFFFFFFFFFFFFFFFFFFFFFFF AND DUP2 MSTORE PUSH1 0x20 ADD DUP5 DUP2 MSTORE POP SWAP1 DUP1 PUSH1 0x1 DUP2 SLOAD ADD DUP1 DUP3 SSTORE DUP1 SWAP2 POP POP PUSH1 0x1 SWAP1 SUB SWAP1 PUSH1 0x0 MSTORE PUSH1 0x20 PUSH1 0x0 KECCAK256 SWAP1 PUSH1 0x2 MUL ADD PUSH1 0x0 SWAP1 SWAP2 SWAP1 SWAP2 SWAP1 SWAP2 POP PUSH1 0x0 DUP3 ADD MLOAD DUP2 PUSH1 0x0 ADD PUSH1 0x0 PUSH2 0x100 EXP DUP2 SLOAD DUP2 PUSH20 0xFFFFFFFFFFFFFFFFFFFFFFFFFFFFFFFFFFFFFFFF MUL NOT AND SWAP1 DUP4 PUSH20 0xFFFFFFFFFFFFFFFFFFFFFFFFFFFFFFFFFFFFFFFF AND MUL OR SWAP1 SSTORE POP PUSH1 0x20 DUP3 ADD MLOAD DUP2 PUSH1 0x1 ADD SSTORE POP POP PUSH1 0x1 DUP2 PUSH1 0x4 ADD PUSH1 0x0 CALLER PUSH20 0xFFFFFFFFFFFFFFFFFFFFFFFFFFFFFFFFFFFFFFFF AND PUSH20 0xFFFFFFFFFFFFFFFFFFFFFFFFFFFFFFFFFFFFFFFF AND DUP2 MSTORE PUSH1 0x20 ADD SWAP1 DUP2 MSTORE PUSH1 0x20 ADD PUSH1 0x0 KECCAK256 PUSH1 0x0 PUSH2 0x100 EXP DUP2 SLOAD DUP2 PUSH1 0xFF MUL NOT AND SWAP1 DUP4 ISZERO ISZERO MUL OR SWAP1 SSTORE POP POP POP POP JUMP JUMPDEST PUSH1 0x0 PUSH1 0x40 MLOAD SWAP1 POP SWAP1 JUMP JUMPDEST PUSH1 0x0 DUP1 REVERT JUMPDEST PUSH1 0x0 DUP1 REVERT JUMPDEST PUSH1 0x0 DUP2 SWAP1 POP SWAP2 SWAP1 POP JUMP JUMPDEST PUSH2 0x980 DUP2 PUSH2 0x96D JUMP JUMPDEST DUP2 EQ PUSH2 0x98B JUMPI PUSH1 0x0 DUP1 REVERT JUMPDEST POP JUMP JUMPDEST PUSH1 0x0 DUP2 CALLDATALOAD SWAP1 POP PUSH2 0x99D DUP2 PUSH2 0x977 JUMP JUMPDEST SWAP3 SWAP2 POP POP JUMP JUMPDEST PUSH1 0x0 PUSH1 0x20 DUP3 DUP5 SUB SLT ISZERO PUSH2 0x9B9 JUMPI PUSH2 0x9B8 PUSH2 0x963 JUMP JUMPDEST JUMPDEST PUSH1 0x0 PUSH2 0x9C7 DUP5 DUP3 DUP6 ADD PUSH2 0x98E JUMP JUMPDEST SWAP2 POP POP SWAP3 SWAP2 POP POP JUMP JUMPDEST PUSH1 0x0 DUP2 MLOAD SWAP1 POP SWAP2 SWAP1 POP JUMP JUMPDEST PUSH1 0x0 DUP3 DUP3 MSTORE PUSH1 0x20 DUP3 ADD SWAP1 POP SWAP3 SWAP2 POP POP JUMP JUMPDEST PUSH1 0x0 JUMPDEST DUP4 DUP2 LT ISZERO PUSH2 0xA0A JUMPI DUP1 DUP3 ADD MLOAD DUP2 DUP5 ADD MSTORE PUSH1 0x20 DUP2 ADD SWAP1 POP PUSH2 0x9EF JUMP JUMPDEST PUSH1 0x0 DUP5 DUP5 ADD MSTORE POP POP POP POP JUMP JUMPDEST PUSH1 0x0 PUSH1 0x1F NOT PUSH1 0x1F DUP4 ADD AND SWAP1 POP SWAP2 SWAP1 POP JUMP JUMPDEST PUSH1 0x0 PUSH2 0xA32 DUP3 PUSH2 0x9D0 JUMP JUMPDEST PUSH2 0xA3C DUP2 DUP6 PUSH2 0x9DB JUMP JUMPDEST SWAP4 POP PUSH2 0xA4C DUP2 DUP6 PUSH1 0x20 DUP7 ADD PUSH2 0x9EC JUMP JUMPDEST PUSH2 0xA55 DUP2 PUSH2 0xA16 JUMP JUMPDEST DUP5 ADD SWAP2 POP POP SWAP3 SWAP2 POP POP JUMP JUMPDEST PUSH1 0x0 DUP2 ISZERO ISZERO SWAP1 POP SWAP2 SWAP1 POP JUMP JUMPDEST PUSH2 0xA75 DUP2 PUSH2 0xA60 JUMP JUMPDEST DUP3 MSTORE POP POP JUMP JUMPDEST PUSH1 0x0 PUSH1 0x60 DUP3 ADD SWAP1 POP DUP2 DUP2 SUB PUSH1 0x0 DUP4 ADD MSTORE PUSH2 0xA95 DUP2 DUP7 PUSH2 0xA27 JUMP JUMPDEST SWAP1 POP DUP2 DUP2 SUB PUSH1 0x20 DUP4 ADD MSTORE PUSH2 0xAA9 DUP2 DUP6 PUSH2 0xA27 JUMP JUMPDEST SWAP1 POP PUSH2 0xAB8 PUSH1 0x40 DUP4 ADD DUP5 PUSH2 0xA6C JUMP JUMPDEST SWAP5 SWAP4 POP POP POP POP JUMP JUMPDEST PUSH1 0x0 DUP1 REVERT JUMPDEST PUSH1 0x0 DUP1 REVERT JUMPDEST PUSH32 0x4E487B7100000000000000000000000000000000000000000000000000000000 PUSH1 0x0 MSTORE PUSH1 0x41 PUSH1 0x4 MSTORE PUSH1 0x24 PUSH1 0x0 REVERT JUMPDEST PUSH2 0xB02 DUP3 PUSH2 0xA16 JUMP JUMPDEST DUP2 ADD DUP2 DUP2 LT PUSH8 0xFFFFFFFFFFFFFFFF DUP3 GT OR ISZERO PUSH2 0xB21 JUMPI PUSH2 0xB20 PUSH2 0xACA JUMP JUMPDEST JUMPDEST DUP1 PUSH1 0x40 MSTORE POP POP POP JUMP JUMPDEST PUSH1 0x0 PUSH2 0xB34 PUSH2 0x959 JUMP JUMPDEST SWAP1 POP PUSH2 0xB40 DUP3 DUP3 PUSH2 0xAF9 JUMP JUMPDEST SWAP2 SWAP1 POP JUMP JUMPDEST PUSH1 0x0 PUSH8 0xFFFFFFFFFFFFFFFF DUP3 GT ISZERO PUSH2 0xB60 JUMPI PUSH2 0xB5F PUSH2 0xACA JUMP JUMPDEST JUMPDEST PUSH2 0xB69 DUP3 PUSH2 0xA16 JUMP JUMPDEST SWAP1 POP PUSH1 0x20 DUP2 ADD SWAP1 POP SWAP2 SWAP1 POP JUMP JUMPDEST DUP3 DUP2 DUP4 CALLDATACOPY PUSH1 0x0 DUP4 DUP4 ADD MSTORE POP POP POP JUMP JUMPDEST PUSH1 0x0 PUSH2 0xB98 PUSH2 0xB93 DUP5 PUSH2 0xB45 JUMP JUMPDEST PUSH2 0xB2A JUMP JUMPDEST SWAP1 POP DUP3 DUP2 MSTORE PUSH1 0x20 DUP2 ADD DUP5 DUP5 DUP5 ADD GT ISZERO PUSH2 0xBB4 JUMPI PUSH2 0xBB3 PUSH2 0xAC5 JUMP JUMPDEST JUMPDEST PUSH2 0xBBF DUP5 DUP3 DUP6 PUSH2 0xB76 JUMP JUMPDEST POP SWAP4 SWAP3 POP POP POP JUMP JUMPDEST PUSH1 0x0 DUP3 PUSH1 0x1F DUP4 ADD SLT PUSH2 0xBDC JUMPI PUSH2 0xBDB PUSH2 0xAC0 JUMP JUMPDEST JUMPDEST DUP2 CALLDATALOAD PUSH2 0xBEC DUP5 DUP3 PUSH1 0x20 DUP7 ADD PUSH2 0xB85 JUMP JUMPDEST SWAP2 POP POP SWAP3 SWAP2 POP POP JUMP JUMPDEST PUSH1 0x0 DUP1 PUSH1 0x40 DUP4 DUP6 SUB SLT ISZERO PUSH2 0xC0C JUMPI PUSH2 0xC0B PUSH2 0x963 JUMP JUMPDEST JUMPDEST PUSH1 0x0 DUP4 ADD CALLDATALOAD PUSH8 0xFFFFFFFFFFFFFFFF DUP2 GT ISZERO PUSH2 0xC2A JUMPI PUSH2 0xC29 PUSH2 0x968 JUMP JUMPDEST JUMPDEST PUSH2 0xC36 DUP6 DUP3 DUP7 ADD PUSH2 0xBC7 JUMP JUMPDEST SWAP3 POP POP PUSH1 0x20 DUP4 ADD CALLDATALOAD PUSH8 0xFFFFFFFFFFFFFFFF DUP2 GT ISZERO PUSH2 0xC57 JUMPI PUSH2 0xC56 PUSH2 0x968 JUMP JUMPDEST JUMPDEST PUSH2 0xC63 DUP6 DUP3 DUP7 ADD PUSH2 0xBC7 JUMP JUMPDEST SWAP2 POP POP SWAP3 POP SWAP3 SWAP1 POP JUMP JUMPDEST PUSH1 0x0 PUSH20 0xFFFFFFFFFFFFFFFFFFFFFFFFFFFFFFFFFFFFFFFF DUP3 AND SWAP1 POP SWAP2 SWAP1 POP JUMP JUMPDEST PUSH1 0x0 PUSH2 0xC98 DUP3 PUSH2 0xC6D JUMP JUMPDEST SWAP1 POP SWAP2 SWAP1 POP JUMP JUMPDEST PUSH2 0xCA8 DUP2 PUSH2 0xC8D JUMP JUMPDEST DUP2 EQ PUSH2 0xCB3 JUMPI PUSH1 0x0 DUP1 REVERT JUMPDEST POP JUMP JUMPDEST PUSH1 0x0 DUP2 CALLDATALOAD SWAP1 POP PUSH2 0xCC5 DUP2 PUSH2 0xC9F JUMP JUMPDEST SWAP3 SWAP2 POP POP JUMP JUMPDEST PUSH1 0x0 PUSH1 0x20 DUP3 DUP5 SUB SLT ISZERO PUSH2 0xCE1 JUMPI PUSH2 0xCE0 PUSH2 0x963 JUMP JUMPDEST JUMPDEST PUSH1 0x0 PUSH2 0xCEF DUP5 DUP3 DUP6 ADD PUSH2 0xCB6 JUMP JUMPDEST SWAP2 POP POP SWAP3 SWAP2 POP POP JUMP JUMPDEST PUSH2 0xD01 DUP2 PUSH2 0x96D JUMP JUMPDEST DUP3 MSTORE POP POP JUMP JUMPDEST PUSH1 0x0 PUSH1 0x40 DUP3 ADD SWAP1 POP PUSH2 0xD1C PUSH1 0x0 DUP4 ADD DUP6 PUSH2 0xCF8 JUMP JUMPDEST PUSH2 0xD29 PUSH1 0x20 DUP4 ADD DUP5 PUSH2 0xA6C JUMP JUMPDEST SWAP4 SWAP3 POP POP POP JUMP JUMPDEST PUSH1 0x0 DUP1 PUSH1 0x40 DUP4 DUP6 SUB SLT ISZERO PUSH2 0xD47 JUMPI PUSH2 0xD46 PUSH2 0x963 JUMP JUMPDEST JUMPDEST PUSH1 0x0 PUSH2 0xD55 DUP6 DUP3 DUP7 ADD PUSH2 0x98E JUMP JUMPDEST SWAP3 POP POP PUSH1 0x20 PUSH2 0xD66 DUP6 DUP3 DUP7 ADD PUSH2 0x98E JUMP JUMPDEST SWAP2 POP POP SWAP3 POP SWAP3 SWAP1 POP JUMP JUMPDEST PUSH32 0x4E487B7100000000000000000000000000000000000000000000000000000000 PUSH1 0x0 MSTORE PUSH1 0x22 PUSH1 0x4 MSTORE PUSH1 0x24 PUSH1 0x0 REVERT JUMPDEST PUSH1 0x0 PUSH1 0x2 DUP3 DIV SWAP1 POP PUSH1 0x1 DUP3 AND DUP1 PUSH2 0xDB7 JUMPI PUSH1 0x7F DUP3 AND SWAP2 POP JUMPDEST PUSH1 0x20 DUP3 LT DUP2 SUB PUSH2 0xDCA JUMPI PUSH2 0xDC9 PUSH2 0xD70 JUMP JUMPDEST JUMPDEST POP SWAP2 SWAP1 POP JUMP JUMPDEST PUSH32 0x4F6E6C792061646D696E2063616E206372656174652070726F706F73616C0000 PUSH1 0x0 DUP3 ADD MSTORE POP JUMP JUMPDEST PUSH1 0x0 PUSH2 0xE06 PUSH1 0x1E DUP4 PUSH2 0x9DB JUMP JUMPDEST SWAP2 POP PUSH2 0xE11 DUP3 PUSH2 0xDD0 JUMP JUMPDEST PUSH1 0x20 DUP3 ADD SWAP1 POP SWAP2 SWAP1 POP JUMP JUMPDEST PUSH1 0x0 PUSH1 0x20 DUP3 ADD SWAP1 POP DUP2 DUP2 SUB PUSH1 0x0 DUP4 ADD MSTORE PUSH2 0xE35 DUP2 PUSH2 0xDF9 JUMP JUMPDEST SWAP1 POP SWAP2 SWAP1 POP JUMP JUMPDEST PUSH1 0x0 DUP2 SWAP1 POP DUP2 PUSH1 0x0 MSTORE PUSH1 0x20 PUSH1 0x0 KECCAK256 SWAP1 POP SWAP2 SWAP1 POP JUMP JUMPDEST PUSH1 0x0 PUSH1 0x20 PUSH1 0x1F DUP4 ADD DIV SWAP1 POP SWAP2 SWAP1 POP JUMP JUMPDEST PUSH1 0x0 DUP3 DUP3 SHL SWAP1 POP SWAP3 SWAP2 POP POP JUMP JUMPDEST PUSH1 0x0 PUSH1 0x8 DUP4 MUL PUSH2 0xE9E PUSH32 0xFFFFFFFFFFFFFFFFFFFFFFFFFFFFFFFFFFFFFFFFFFFFFFFFFFFFFFFFFFFFFFFF DUP3 PUSH2 0xE61 JUMP JUMPDEST PUSH2 0xEA8 DUP7 DUP4 PUSH2 0xE61 JUMP JUMPDEST SWAP6 POP DUP1 NOT DUP5 AND SWAP4 POP DUP1 DUP7 AND DUP5 OR SWAP3 POP POP POP SWAP4 SWAP3 POP POP POP JUMP JUMPDEST PUSH1 0x0 DUP2 SWAP1 POP SWAP2 SWAP1 POP JUMP JUMPDEST PUSH1 0x0 PUSH2 0xEE5 PUSH2 0xEE0 PUSH2 0xEDB DUP5 PUSH2 0x96D JUMP JUMPDEST PUSH2 0xEC0 JUMP JUMPDEST PUSH2 0x96D JUMP JUMPDEST SWAP1 POP SWAP2 SWAP1 POP JUMP JUMPDEST PUSH1 0x0 DUP2 SWAP1 POP SWAP2 SWAP1 POP JUMP JUMPDEST PUSH2 0xEFF DUP4 PUSH2 0xECA JUMP JUMPDEST PUSH2 0xF13 PUSH2 0xF0B DUP3 PUSH2 0xEEC JUMP JUMPDEST DUP5 DUP5 SLOAD PUSH2 0xE6E JUMP JUMPDEST DUP3 SSTORE POP POP POP POP JUMP JUMPDEST PUSH1 0x0 SWAP1 JUMP JUMPDEST PUSH2 0xF28 PUSH2 0xF1B JUMP JUMPDEST PUSH2 0xF33 DUP2 DUP5 DUP5 PUSH2 0xEF6 JUMP JUMPDEST POP POP POP JUMP JUMPDEST JUMPDEST DUP2 DUP2 LT ISZERO PUSH2 0xF57 JUMPI PUSH2 0xF4C PUSH1 0x0 DUP3 PUSH2 0xF20 JUMP JUMPDEST PUSH1 0x1 DUP2 ADD SWAP1 POP PUSH2 0xF39 JUMP JUMPDEST POP POP JUMP JUMPDEST PUSH1 0x1F DUP3 GT ISZERO PUSH2 0xF9C JUMPI PUSH2 0xF6D DUP2 PUSH2 0xE3C JUMP JUMPDEST PUSH2 0xF76 DUP5 PUSH2 0xE51 JUMP JUMPDEST DUP2 ADD PUSH1 0x20 DUP6 LT ISZERO PUSH2 0xF85 JUMPI DUP2 SWAP1 POP JUMPDEST PUSH2 0xF99 PUSH2 0xF91 DUP6 PUSH2 0xE51 JUMP JUMPDEST DUP4 ADD DUP3 PUSH2 0xF38 JUMP JUMPDEST POP POP JUMPDEST POP POP POP JUMP JUMPDEST PUSH1 0x0 DUP3 DUP3 SHR SWAP1 POP SWAP3 SWAP2 POP POP JUMP JUMPDEST PUSH1 0x0 PUSH2 0xFBF PUSH1 0x0 NOT DUP5 PUSH1 0x8 MUL PUSH2 0xFA1 JUMP JUMPDEST NOT DUP1 DUP4 AND SWAP2 POP POP SWAP3 SWAP2 POP POP JUMP JUMPDEST PUSH1 0x0 PUSH2 0xFD8 DUP4 DUP4 PUSH2 0xFAE JUMP JUMPDEST SWAP2 POP DUP3 PUSH1 0x2 MUL DUP3 OR SWAP1 POP SWAP3 SWAP2 POP POP JUMP JUMPDEST PUSH2 0xFF1 DUP3 PUSH2 0x9D0 JUMP JUMPDEST PUSH8 0xFFFFFFFFFFFFFFFF DUP2 GT ISZERO PUSH2 0x100A JUMPI PUSH2 0x1009 PUSH2 0xACA JUMP JUMPDEST JUMPDEST PUSH2 0x1014 DUP3 SLOAD PUSH2 0xD9F JUMP JUMPDEST PUSH2 0x101F DUP3 DUP3 DUP6 PUSH2 0xF5B JUMP JUMPDEST PUSH1 0x0 PUSH1 0x20 SWAP1 POP PUSH1 0x1F DUP4 GT PUSH1 0x1 DUP2 EQ PUSH2 0x1052 JUMPI PUSH1 0x0 DUP5 ISZERO PUSH2 0x1040 JUMPI DUP3 DUP8 ADD MLOAD SWAP1 POP JUMPDEST PUSH2 0x104A DUP6 DUP3 PUSH2 0xFCC JUMP JUMPDEST DUP7 SSTORE POP PUSH2 0x10B2 JUMP JUMPDEST PUSH1 0x1F NOT DUP5 AND PUSH2 0x1060 DUP7 PUSH2 0xE3C JUMP JUMPDEST PUSH1 0x0 JUMPDEST DUP3 DUP2 LT ISZERO PUSH2 0x1088 JUMPI DUP5 DUP10 ADD MLOAD DUP3 SSTORE PUSH1 0x1 DUP3 ADD SWAP2 POP PUSH1 0x20 DUP6 ADD SWAP5 POP PUSH1 0x20 DUP2 ADD SWAP1 POP PUSH2 0x1063 JUMP JUMPDEST DUP7 DUP4 LT ISZERO PUSH2 0x10A5 JUMPI DUP5 DUP10 ADD MLOAD PUSH2 0x10A1 PUSH1 0x1F DUP10 AND DUP3 PUSH2 0xFAE JUMP JUMPDEST DUP4 SSTORE POP JUMPDEST PUSH1 0x1 PUSH1 0x2 DUP9 MUL ADD DUP9 SSTORE POP POP POP JUMPDEST POP POP POP POP POP POP JUMP JUMPDEST PUSH32 0x4F6E6C792061646D696E2063616E207365742061646D696E0000000000000000 PUSH1 0x0 DUP3 ADD MSTORE POP JUMP JUMPDEST PUSH1 0x0 PUSH2 0x10F0 PUSH1 0x18 DUP4 PUSH2 0x9DB JUMP JUMPDEST SWAP2 POP PUSH2 0x10FB DUP3 PUSH2 0x10BA JUMP JUMPDEST PUSH1 0x20 DUP3 ADD SWAP1 POP SWAP2 SWAP1 POP JUMP JUMPDEST PUSH1 0x0 PUSH1 0x20 DUP3 ADD SWAP1 POP DUP2 DUP2 SUB PUSH1 0x0 DUP4 ADD MSTORE PUSH2 0x111F DUP2 PUSH2 0x10E3 JUMP JUMPDEST SWAP1 POP SWAP2 SWAP1 POP JUMP JUMPDEST PUSH32 0x4F6E6C792061646D696E2063616E20636C6F73652070726F706F73616C000000 PUSH1 0x0 DUP3 ADD MSTORE POP JUMP JUMPDEST PUSH1 0x0 PUSH2 0x115C PUSH1 0x1D DUP4 PUSH2 0x9DB JUMP JUMPDEST SWAP2 POP PUSH2 0x1167 DUP3 PUSH2 0x1126 JUMP JUMPDEST PUSH1 0x20 DUP3 ADD SWAP1 POP SWAP2 SWAP1 POP JUMP JUMPDEST PUSH1 0x0 PUSH1 0x20 DUP3 ADD SWAP1 POP DUP2 DUP2 SUB PUSH1 0x0 DUP4 ADD MSTORE PUSH2 0x118B DUP2 PUSH2 0x114F JUMP JUMPDEST SWAP1 POP SWAP2 SWAP1 POP JUMP JUMPDEST PUSH32 0x496E76616C69642070726F706F73616C20696E64657800000000000000000000 PUSH1 0x0 DUP3 ADD MSTORE POP JUMP JUMPDEST PUSH1 0x0 PUSH2 0x11C8 PUSH1 0x16 DUP4 PUSH2 0x9DB JUMP JUMPDEST SWAP2 POP PUSH2 0x11D3 DUP3 PUSH2 0x1192 JUMP JUMPDEST PUSH1 0x20 DUP3 ADD SWAP1 POP SWAP2 SWAP1 POP JUMP JUMPDEST PUSH1 0x0 PUSH1 0x20 DUP3 ADD SWAP1 POP DUP2 DUP2 SUB PUSH1 0x0 DUP4 ADD MSTORE PUSH2 0x11F7 DUP2 PUSH2 0x11BB JUMP JUMPDEST SWAP1 POP SWAP2 SWAP1 POP JUMP JUMPDEST PUSH32 0x4E487B7100000000000000000000000000000000000000000000000000000000 PUSH1 0x0 MSTORE PUSH1 0x32 PUSH1 0x4 MSTORE PUSH1 0x24 PUSH1 0x0 REVERT JUMPDEST PUSH32 0x50726F706F73616C20697320616C726561647920636C6F736564000000000000 PUSH1 0x0 DUP3 ADD MSTORE POP JUMP JUMPDEST PUSH1 0x0 PUSH2 0x1263 PUSH1 0x1A DUP4 PUSH2 0x9DB JUMP JUMPDEST SWAP2 POP PUSH2 0x126E DUP3 PUSH2 0x122D JUMP JUMPDEST PUSH1 0x20 DUP3 ADD SWAP1 POP SWAP2 SWAP1 POP JUMP JUMPDEST PUSH1 0x0 PUSH1 0x20 DUP3 ADD SWAP1 POP DUP2 DUP2 SUB PUSH1 0x0 DUP4 ADD MSTORE PUSH2 0x1292 DUP2 PUSH2 0x1256 JUMP JUMPDEST SWAP1 POP SWAP2 SWAP1 POP JUMP JUMPDEST PUSH32 0x4E487B7100000000000000000000000000000000000000000000000000000000 PUSH1 0x0 MSTORE PUSH1 0x11 PUSH1 0x4 MSTORE PUSH1 0x24 PUSH1 0x0 REVERT JUMPDEST PUSH1 0x0 PUSH2 0x12D3 DUP3 PUSH2 0x96D JUMP JUMPDEST SWAP2 POP PUSH32 0xFFFFFFFFFFFFFFFFFFFFFFFFFFFFFFFFFFFFFFFFFFFFFFFFFFFFFFFFFFFFFFFF DUP3 SUB PUSH2 0x1305 JUMPI PUSH2 0x1304 PUSH2 0x1299 JUMP JUMPDEST JUMPDEST PUSH1 0x1 DUP3 ADD SWAP1 POP SWAP2 SWAP1 POP JUMP JUMPDEST PUSH32 0x50726F706F73616C20697320636C6F7365640000000000000000000000000000 PUSH1 0x0 DUP3 ADD MSTORE POP JUMP JUMPDEST PUSH1 0x0 PUSH2 0x1346 PUSH1 0x12 DUP4 PUSH2 0x9DB JUMP JUMPDEST SWAP2 POP PUSH2 0x1351 DUP3 PUSH2 0x1310 JUMP JUMPDEST PUSH1 0x20 DUP3 ADD SWAP1 POP SWAP2 SWAP1 POP JUMP JUMPDEST PUSH1 0x0 PUSH1 0x20 DUP3 ADD SWAP1 POP DUP2 DUP2 SUB PUSH1 0x0 DUP4 ADD MSTORE PUSH2 0x1375 DUP2 PUSH2 0x1339 JUMP JUMPDEST SWAP1 POP SWAP2 SWAP1 POP JUMP JUMPDEST PUSH32 0x596F75206861766520616C726561647920766F74656420666F72207468697320 PUSH1 0x0 DUP3 ADD MSTORE PUSH32 0x70726F706F73616C000000000000000000000000000000000000000000000000 PUSH1 0x20 DUP3 ADD MSTORE POP JUMP JUMPDEST PUSH1 0x0 PUSH2 0x13D8 PUSH1 0x28 DUP4 PUSH2 0x9DB JUMP JUMPDEST SWAP2 POP PUSH2 0x13E3 DUP3 PUSH2 0x137C JUMP JUMPDEST PUSH1 0x40 DUP3 ADD SWAP1 POP SWAP2 SWAP1 POP JUMP JUMPDEST PUSH1 0x0 PUSH1 0x20 DUP3 ADD SWAP1 POP DUP2 DUP2 SUB PUSH1 0x0 DUP4 ADD MSTORE PUSH2 0x1407 DUP2 PUSH2 0x13CB JUMP JUMPDEST SWAP1 POP SWAP2 SWAP1 POP JUMP INVALID LOG2 PUSH5 0x6970667358 0x22 SLT KECCAK256 DIV JUMPI EQ EXTCODECOPY LOG1 PUSH29 0xE4D7E7DB000A9A998B79084F616C2D8CC8F29A0FF237720415E64736F PUSH13 0x63430008120033000000000000 "
				},
				"gasEstimates": {
					"creation": {
						"codeDepositCost": "1037600",
						"executionCost": "25442",
						"totalCost": "1063042"
					},
					"external": {
						"closeProposal(uint256,uint256)": "infinite",
						"createProposal(string,string)": "infinite",
						"proposals(uint256)": "infinite",
						"setAdmin(address)": "27088",
						"voteForProposal(uint256,uint256)": "infinite",
						"voters(address)": "5126"
					}
				},
				"methodIdentifiers": {
					"closeProposal(uint256,uint256)": "e7613ea8",
					"createProposal(string,string)": "65e481e2",
					"proposals(uint256)": "013cf08b",
					"setAdmin(address)": "704b6c02",
					"voteForProposal(uint256,uint256)": "f8f1212a",
					"voters(address)": "a3ec138d"
				}
			},
			"storageLayout": {
				"storage": [
					{
						"astId": 31,
						"contract": "contracts/Ballot.sol:Ballot",
						"label": "voters",
						"offset": 0,
						"slot": "0",
						"type": "t_mapping(t_address,t_struct(Voter)6_storage)"
					},
					{
						"astId": 35,
						"contract": "contracts/Ballot.sol:Ballot",
						"label": "proposals",
						"offset": 0,
						"slot": "1",
						"type": "t_array(t_struct(Proposal)26_storage)dyn_storage"
					}
				],
				"types": {
					"t_address": {
						"encoding": "inplace",
						"label": "address",
						"numberOfBytes": "20"
					},
					"t_array(t_struct(Proposal)26_storage)dyn_storage": {
						"base": "t_struct(Proposal)26_storage",
						"encoding": "dynamic_array",
						"label": "struct Ballot.Proposal[]",
						"numberOfBytes": "32"
					},
					"t_array(t_struct(Vote)11_storage)dyn_storage": {
						"base": "t_struct(Vote)11_storage",
						"encoding": "dynamic_array",
						"label": "struct Ballot.Vote[]",
						"numberOfBytes": "32"
					},
					"t_bool": {
						"encoding": "inplace",
						"label": "bool",
						"numberOfBytes": "1"
					},
					"t_mapping(t_address,t_bool)": {
						"encoding": "mapping",
						"key": "t_address",
						"label": "mapping(address => bool)",
						"numberOfBytes": "32",
						"value": "t_bool"
					},
					"t_mapping(t_address,t_struct(Voter)6_storage)": {
						"encoding": "mapping",
						"key": "t_address",
						"label": "mapping(address => struct Ballot.Voter)",
						"numberOfBytes": "32",
						"value": "t_struct(Voter)6_storage"
					},
					"t_string_storage": {
						"encoding": "bytes",
						"label": "string",
						"numberOfBytes": "32"
					},
					"t_struct(Proposal)26_storage": {
						"encoding": "inplace",
						"label": "struct Ballot.Proposal",
						"members": [
							{
								"astId": 13,
								"contract": "contracts/Ballot.sol:Ballot",
								"label": "title",
								"offset": 0,
								"slot": "0",
								"type": "t_string_storage"
							},
							{
								"astId": 15,
								"contract": "contracts/Ballot.sol:Ballot",
								"label": "description",
								"offset": 0,
								"slot": "1",
								"type": "t_string_storage"
							},
							{
								"astId": 17,
								"contract": "contracts/Ballot.sol:Ballot",
								"label": "isOpen",
								"offset": 0,
								"slot": "2",
								"type": "t_bool"
							},
							{
								"astId": 21,
								"contract": "contracts/Ballot.sol:Ballot",
								"label": "votes",
								"offset": 0,
								"slot": "3",
								"type": "t_array(t_struct(Vote)11_storage)dyn_storage"
							},
							{
								"astId": 25,
								"contract": "contracts/Ballot.sol:Ballot",
								"label": "hasVoted",
								"offset": 0,
								"slot": "4",
								"type": "t_mapping(t_address,t_bool)"
							}
						],
						"numberOfBytes": "160"
					},
					"t_struct(Vote)11_storage": {
						"encoding": "inplace",
						"label": "struct Ballot.Vote",
						"members": [
							{
								"astId": 8,
								"contract": "contracts/Ballot.sol:Ballot",
								"label": "voter",
								"offset": 0,
								"slot": "0",
								"type": "t_address"
							},
							{
								"astId": 10,
								"contract": "contracts/Ballot.sol:Ballot",
								"label": "voteValue",
								"offset": 0,
								"slot": "1",
								"type": "t_uint256"
							}
						],
						"numberOfBytes": "64"
					},
					"t_struct(Voter)6_storage": {
						"encoding": "inplace",
						"label": "struct Ballot.Voter",
						"members": [
							{
								"astId": 3,
								"contract": "contracts/Ballot.sol:Ballot",
								"label": "score",
								"offset": 0,
								"slot": "0",
								"type": "t_uint256"
							},
							{
								"astId": 5,
								"contract": "contracts/Ballot.sol:Ballot",
								"label": "isAdmin",
								"offset": 0,
								"slot": "1",
								"type": "t_bool"
							}
						],
						"numberOfBytes": "64"
					},
					"t_uint256": {
						"encoding": "inplace",
						"label": "uint256",
						"numberOfBytes": "32"
					}
				}
			},
			"userdoc": {
				"kind": "user",
				"methods": {},
				"version": 1
			}
		}
	}
}